:020000040800F2
:1000000010390020990100085F1A0008ED1500085A
:100010005D1A0008D5020008991F000800000000C2
:10002000000000000000000000000000551C000857
:10003000D702000800000000D11B0008591C00086E
:10004000B3010008B3010008B3010008B3010008C0
:10005000B3010008B3010008B3010008D902000889
:10006000B3010008B3010008B3010008B3010008A0
:10007000B3010008B3010008B3010008B301000890
:10008000B3010008B3010008B3010008B301000880
:10009000B3010008B3010008B3010008B301000870
:1000A000B3010008B3010008B3010008B301000860
:1000B000BD1C0008B3010008B3010008B30100082B
:1000C000B3010008B3010008B3010008B301000840
:1000D000B3010008B30100088D1F0008B301000838
:1000E000B3010008B3010008B3010008DFF80CD029
:1000F00000F09EF800480047D12100081039002088
:10010000224B19680868B0E8F00F80F30988BFF344
:100110006F8F4FF0000080F311884EF00D0E704786
:100120000000000006480068006880F3088862B696
:1001300061B6BFF34F8FBFF36F8F00DF00BF00BF0B
:1001400008ED00E0EFF30980BFF36F8F0F4B1A68E3
:1001500020E9F00F106008B54FF0100080F311880F
:10016000BFF34F8FBFF36F8F02F0FCFE4FF0000024
:1001700080F31188BDE8084019680868B0E8F00FFE
:1001800080F30988BFF36F8F704700BF1400002011
:10019000EFF3058070470000064880470648004797
:1001A000FEE7FEE7FEE7FEE7FEE7FEE7FEE7FEE727
:1001B000FEE7FEE7BB1C0008ED00000840EA010373
:1001C0009B0703D009E008C9121F08C0042AFAD20D
:1001D00003E011F8013B00F8013B521EF9D27047D1
:1001E000D2B201E000F8012B491EFBD27047002279
:1001F000F6E710B513460A4604461946FFF7F0FF26
:10020000204610BD30B50B460146002020220124B7
:1002100009E021FA02F59D4205D303FA02F5491BD4
:1002200004FA02F52844151EA2F10102F1DC30BDEA
:10023000064C074D06E0E06840F0010394E8070033
:1002400098471034AC42F6D3FFF754FFB44300088C
:10025000D44300080024154F154D4FF400564FF4B9
:100260007A784FF0FF393146384600F0CBF94046F6
:1002700002F050FD4946286803F06CF82246641CE1
:10028000A4B20CA10F4801F0B3FE002110230D4AC7
:10029000084601F05DFC00231A461946286802F062
:1002A00031FF09A001F094FEDDE7000000100140DD
:1002B00088000020426C65645F7461736B3A25644A
:1002C00020000000FC240020426C65645F746173B0
:1002D0006B0D0A00FEE77047022000F097B872B677
:1002E000FEE710B590F821100022022905D0042164
:1002F000816380F82020012010BD01680B6823F085
:100300000E030B6001680B6823F001030B6090F88B
:100310004030C46B012101FA03F3636080F82110BF
:1003200080F82020104610BD10B590F82110002450
:10033000022903D00421816301243DE001680A6899
:1003400022F00E020A6001680A6822F001020A60C7
:100350001A4A0168914201D1012121E0174A143261
:10036000914201D110211BE0144A2832914201D15F
:10037000891515E0114A3C32914201D189140FE0F0
:100380000E4A5032914202D14FF4803108E00B4ABC
:100390006432914202D14FF4801101E04FF080713C
:1003A000064A083A5160012180F82110002180F8A6
:1003B0002010416B01B18847204610BD0800024063
:1003C00070B5044600F02CF90546601C02D00448C4
:1003D0000078044400F024F9401BA042FAD370BD19
:1003E0000400002010B502280BD106480021006847
:1003F00002F004FFBDE810404FF48041024800F0D5
:1004000001B910BD0000002000100140044910B5E2
:100410000A68024202D00860FFF7E4FF10BD000046
:10042000140401402DE9F84FDFF8B8910024A9F138
:10043000040B23460F2709F1040AABF1040EC9E0AF
:100440000125A5402A40AA427DD1674ED1F804C0BB
:10045000ACEB0608B44532D014DCBCF1030F3AD043
:1004600009DCBCF1000F2AD0BCF1010F1CD0BCF19B
:10047000020F31D11DE0BCF1110F17D0BCF1120FEA
:100480002AD119E0B8F5881F19D006DCB8F5803FED
:1004900015D0B8F5801F1FD111E0B8F5001F0ED0A0
:1004A000B8F5041F18D10AE0CB6815E0CB681B1D16
:1004B00012E0CB6808330FE0CB680C330CE08B689C
:1004C0002BB1012B4FF0080303D0456104E0042356
:1004D00002E0056100E00023FF2A01D8064601E0A2
:1004E00000F104064FEA840501D9A5F12005D6F8EC
:1004F000008007FA05FC28EA0C0803FA05F548EA2B
:100500000508C6F800804D68ED0062D5374DAE692C
:1005100046F00106AE61AD6924F0030605F0010561
:100520000095334D06EB050CDCF80850A607360F96
:1005300007FA06F825EA0805DFF8B880404503D138
:100540004FF0000817E044E0DFF8AC80404502D1EE
:100550004FF001080FE0DFF8A480404502D14FF0D2
:10056000020808E0DFF89880404502D14FF0030808
:1005700001E04FF0040808FA06F848EA0508CCF84C
:1005800008804D68D9F80060ED024D4601D516434C
:1005900000E096432E604D68DAF80060AD025546E3
:1005A00001D5164300E096432E604D68DBF80060ED
:1005B000AD035D4601D5164300E096432E604D68BD
:1005C000DEF80060ED03754601D5164300E0964362
:1005D0002E60641C0D682A46E5407FF431AFBDE80B
:1005E000F88F0000080401400000111000100240C4
:1005F0000000014000080140000C014000100140D3
:1006000000140140C26821EA02030A4043EA0241A1
:10061000016170470AB1016170470904FBE70000FE
:1006200001488068704700000400002070B5040095
:1006300025D094F83D00002520B984F83C50204690
:1006400000F050F9242084F83D002068016821F072
:10065000010101602068016841F4004101602068E7
:10066000016821F40041016000F0EEFA4D4A616832
:10067000914201D84C4900E04C49884201D2012006
:1006800070BD4B492368B0FBF1F15E6826F03F0670
:100690000E435E606368934206D94FF496735943E4
:1006A0004FF47A73B1FBF3F12368491C1E6A26F0FC
:1006B0003F06314319626168914210D84900401EDB
:1006C000B0FBF1F2521CC2F30B02042A01D2042047
:1006D00022E0B0FBF1F0401CC0F30B001CE0A2686C
:1006E000F2B301EBC10303EB0116431EB3FBF6F3B8
:1006F0005B1C43F480431B0549D092B301EBC1025C
:1007000002EB0111401EB0FBF1F0401CC0F30B00E6
:1007100040F4804040F400402168CA694CF6FF7301
:100720009A431043C861D4E9071001432068026866
:1007300022F0C00211430160D4E9030101432068A3
:10074000826848F2FF339A4311438160D4E905017E
:1007500008432168CA6822F0FF021043C86001E024
:100760000EE016E02068016841F001010160256497
:10077000202084F83D00256384F83E50002070BDA1
:1007800001EB4106431EB3FBF6F35B1CB3E701200C
:10079000C2E701EB4101401EB0FBF1F0401CC0F389
:1007A0000B00B7E7A086010080841E0000093D0011
:1007B00040420F002DE9FF4F83B09A46DDE91197C3
:1007C00093460446DDF84080FFF72AFF054694F87B
:1007D0003D0020287FD11923012240492046009561
:1007E00000F09CFF002876D194F83C00012872D0DC
:1007F000012084F83C0020680168C90703D1016822
:1008000041F0010101602068016821F4006101608C
:10081000212084F83D00402084F83E000026266414
:10082000C4F82480A4F82A90608D20852C48E062CA
:10083000CDE9007553465A462046049900F0EEFE75
:1008400070B930E02A463946204601F00DF858B11B
:10085000206C042804D12068016841F40071016013
:10086000012007B0BDE8F08F606A21680078086158
:10087000606A401C6062218D491E89B22185628DAB
:10088000521E628522685369DB435B070BD469B152
:1008900000781061606A401C6062208D401E2085D7
:1008A000608D401E6085208D0028CBD12A463946B8
:1008B000204600F007FF0028CAD154F83D0B01681C
:1008C00041F400710160202004F81E09E677667784
:1008D0000020C6E7FFE70220C3E700000200100087
:1008E0000000FFFF10B586B0002100910191029138
:1008F000039100681349884222D1134CA06940F04B
:100900000800A061A069694600F0080004904FF457
:100910004070009012200190032003900B48FFF7D5
:1009200081FD0B48416841F0E06141F00201416006
:10093000E06940F40010E061E06900F40010049008
:1009400006B010BD0054004000100240000C0140F1
:1009500000000140024881680278114481607047BC
:1009600004000020074810B5016841F01001016043
:10097000032000F0A1F80F2000F006F800F050F876
:10098000002010BD0020024030B50546204887B049
:10099000C16941F00101C161C06906A900F001000F
:1009A000009001A800F030F90498B8B100F04CF9BB
:1009B000400018494FF08042B0FBF1F11648491E43
:1009C0000260416040F2E7320021C0E9032181600A
:1009D000816100F011FB040003D015E000F034F950
:1009E000E7E70D4800F036FB04000DD11C2000F0B5
:1009F00035F8102D07D2002229461C2000F03CF8C3
:100A00000648056000E0012407B0204630BD000024
:100A10000010024040420F00580100200800002052
:100A20000C4808B5816941F001018161816901F0DB
:100A300001010091C16941F08051C161C06900F0BC
:100A4000805000900448416821F0E06141F000715D
:100A5000416008BD0010024000000140002809DB91
:100A600000F01F02012191404009800000F1E020C8
:100A7000C0F8001170470000F0B40E4B1B680C4624
:100A8000C3F30223C3F10705042D00D90425191D62
:100A9000072901D2002300E0DB1E012606FA05F13A
:100AA000491E214099409E40761E16403143F0BCBD
:100AB00001F0B2BA0CED00E0064900F00702086848
:100AC0004FF6FF03184040EA0220034A1043086033
:100AD000704700000CED00E00000FA052DE9F0473A
:100AE0000F46050061D0434E306800F00700B84261
:100AF00009D2306820F0070038433060306800F0D9
:100B00000700B84251D128683B4C810712D54007F5
:100B100003D5606840F4E06060602878000703D582
:100B2000606840F4605060606068A96820F0F00080
:100B3000084360602878C00728D06868012810D072
:100B40002168022810D0890700292EDA616821F077
:100B5000030101436160FFF763FD804641F288397C
:100B60000DE021688903EFE78901EDE7FFF758FD04
:100B7000A0EB0801494502D90320BDE8F087606871
:100B8000696800F00C00B0EB810FEFD1306800F025
:100B90000700B8420BD9306820F0070038433060B6
:100BA000306800F00700B84201D00120E5E728785E
:100BB000400705D56068E96820F4E060084360609C
:100BC0002878000706D56068296920F4605040EA5B
:100BD000C100606000F058F86168084AC1F3031171
:100BE000515CC8400649086006480068FFF7CCFE23
:100BF0000020C2E70020024000100240D239000865
:100C000010000020080000200F2202600C4A5368E8
:100C100003F003034360536803F0F00383605368F9
:100C200003F4E063C36052684FF4E06303EAD20266
:100C300002610448006800F0070008607047000087
:100C4000001002400020024004480549006849683D
:100C5000044AC1F30221515CC840704710000020D3
:100C600000100240E239000804480549006849685C
:100C7000044AC1F3C221515CC840704710000020F3
:100C800000100240E23900080E4A51680E4801F097
:100C90000C03042B11D0082B0FD10C48C1F3834354
:100CA000C903C05C0AD55168084AC1F34041921E8D
:100CB000515C054A5043B0FBF1F07047044948438A
:100CC000704700000010024000127A00C23900088C
:100CD00000093D002DE9F84F040070D02078C04D88
:100CE000C00749D06868C0F38100012807D0686850
:100CF000C0F38100022809D16868C00306D52868BE
:100D0000800339D560680028E7D035E06068B0F529
:100D1000803F0BD010B1B0F5A02F11D0286820F47F
:100D200080302860286820F4802002E0286840F4A1
:100D300080302860606890B1FFF772FC06460AE0D8
:100D4000286840F480202860F0E700BFFFF768FCC7
:100D5000801B642873D828688003F7D50CE0FFF760
:100D60005FFC064605E000BFFFF75AFC801B6428C5
:100D7000F0D828688003F7D420789A4E80074FF087
:100D800001094FF0000839D5686810F00C0F07D042
:100D90006868C0F38100022809D16868C00306D4DE
:100DA0002868800714D52069012808D110E020693F
:100DB000B0B1C6F80090FFF733FC074605E00AE142
:100DC000FFF72EFCC01B0228C4D828688007F7D57F
:100DD0002868616920F0F80040EAC10028600DE051
:100DE000C6F80080FFF71CFC074604E0FFF718FC7C
:100DF000C01B022823D828688007F7D42078000772
:100E00002CD57948A169D9B1C0F80090FFF708FC4A
:100E1000074604E0FFF704FCC01B02280FD8686AED
:100E20008007F7D571484FF4FA510068B0FBF1F034
:100E3000009000BF0098411E0091FAD20EE080E0C1
:100E4000C0F80080FFF7ECFB074604E0FFF7E8FB83
:100E5000C01B022875D8686A8007F7D4207840073D
:100E600060D5E8690027C00008D4E86940F08050E8
:100E7000E861E869012700F0805000905C48016853
:100E8000C90513D40168834641F480710160FFF7FE
:100E9000C7FB824606E000BFFFF7C2FBA0EB0A00DB
:100EA00064284ED8DBF80000C005F5D5E0680128BD
:100EB0000AD008B1052813D0286A20F00100286262
:100EC000286A20F0040002E0286A40F0010028624D
:100ED000E06841F2883B98B1FFF7A2FB82460BE045
:100EE000286A40F004002862EEE700BFFFF798FB95
:100EF000A0EB0A0159455AD8286A8007F6D50CE0BC
:100F0000FFF78EFB824605E0FFF78AFBA0EB0A01A4
:100F100059454CD8286A8007F6D41FB1E86920F0FB
:100F20008050E861E06988B36968C1F381010229F2
:100F300044D00228C6F8608004D0FFF771FB044655
:100F400038E034E0FFF76CFB074604E0FFF768FB8E
:100F5000C01B02282BD828688001F7D4206AB0F57E
:100F6000803F05D16868A16820F4003008436860BC
:100F7000D4E908010843696821F4741108436860E2
:100F8000C6F86090FFF74CFB044606E025E000BF82
:100F9000FFF746FB001B022809D828688001F7D517
:100FA0001BE000BFFFF73CFB001B022802D9032017
:100FB000BDE8F88F28688001F4D40EE00128F7D04E
:100FC0006868226A00F48031914204D1616A00F4B9
:100FD0007010884201D00120EAE70020E8E7000015
:100FE00000100240000042428004424210000020F3
:100FF000007000407047704710B5040003D094F8AB
:101000003D0010B107E0012010BD002084F83C0035
:10101000204600F01EF8022084F83D00211D2068C3
:1010200000F052FE012084F8460084F83E0084F867
:101030003F0084F8400084F8410084F8420084F8BE
:10104000430084F8440084F8450084F83D00002003
:1010500010BD704790F83D10012901D00120704764
:10106000022180F83D100168CA6842F00102CA609E
:1010700000680B49884208D0B0F1804F05D009497B
:10108000884202D00849884204D1816801F00701F2
:10109000062903D0016841F001010160002070477A
:1010A000002C0140000400400008004070472DE97A
:1010B000F04104460068C66805694FF00007A907BB
:1010C00013D5B10711D5F91E0161012020772068E1
:1010D00080698007204602D0FFF7E8FF04E000F0B7
:1010E0007EF8204600F07CF82777680716D5700751
:1010F00014D521686FF00400086102202077206871
:10110000806910F4407F204602D0FFF7CFFF04E053
:1011100000F065F8204600F063F82777280715D51A
:10112000300713D521686FF008000861042020778C
:101130002068C0698007204602D0FFF7B7FF04E0AF
:1011400000F04DF8204600F04BF82777E80616D55A
:10115000F00614D521686FF0100008610820207790
:101160002068C06910F4407F204602D0FFF79EFF40
:1011700004E000F034F8204600F032F82777E80762
:1011800008D0F00706D021686FF001000861204602
:1011900000F027F8280608D5300606D521686FF03C
:1011A000800008612046FFF725FF680608D5700615
:1011B00006D521686FF040000861204600F018F85D
:1011C000A8060AD5B00608D521686FF0200008618E
:1011D0002046BDE8F041FFF70EBFBDE8F081704743
:1011E00070470068B0F1804F01D1FFF7B3BB704783
:1011F0007047704770470000F8B5016804460868FA
:10120000CA684B6910F00F0F4FF0000559D003F07A
:10121000010602F49077374365D0C10705D0D105A8
:1012200003D5616C41F001016164410705D5D9071F
:1012300003D0616C41F002016164810705D5D907D3
:1012400003D0616C41F004016164010707D502F02D
:101250002001314303D0616C41F008016164616C8D
:1012600000293AD0800604D5900602D5204600F029
:1012700096FD20684069616CC0F38010090700D4B6
:1012800060B3204600F064FD20684069400621D527
:101290002068143050E8001F21F0400140E800129F
:1012A000002AF5D1E06BA8B16D494163E06BFFF70F
:1012B0003BF8002811D0E06B416B01B0BDE8F04075
:1012C000084783060FD593060DD52046BDE8F840A4
:1012D00000F065BD2046FFF78DFFF8BD2046FFF703
:1012E00089FF6564F8BD266B2023012E7CD1C606DC
:1012F0007AD5D60678D508684868009048694FF0D6
:101300000206400640D5E16B086840680004000C06
:10131000E8D0A28D8242E5D9E085886920282DD0C9
:1013200020680C3050E8001F21F4807140E8001262
:10133000002AF5D12068143050E8001F21F0010187
:1013400040E80012002AF5D12068143050E8001F50
:1013500021F0400140E80012002AF5D184F8423023
:10136000256320680C3050E8001F21F0100140E890
:101370000012002AF5D1E06BFEF7B3FF6663A08D83
:10138000E18D401A81B22AE0A08DE18D401A81B230
:10139000E08D0028A6D00029A4D022680C3252E8A3
:1013A000000F20F4907042E80007002FF5D120686C
:1013B000143050E8002F22F0010240E80027002FEF
:1013C000F5D184F84230256320680C3050E8002FB6
:1013D00022F0100240E80023002BF5D1666320467E
:1013E000FFF707FFF8BDFFE705062BD5150629D542
:1013F00094F841002128F5D1A068B0F5805F01D1B3
:101400002069B0B1206A411C2162216800784860DF
:10141000E08C401E0004000CE084E3D12068C16829
:1014200021F08001C1602068C16841F04001C160C5
:10143000D8E7206A0088C0F308004860206A801C52
:101440002062E5E74006CDD55006CBD5CA682046D8
:1014500022F04002CA6084F8413000F0C6F8C1E7CB
:10146000411D000870B5040004D094F84100002527
:1014700010B106E0012070BD84F84050204600F015
:1014800023F8242084F841002068C16821F4005129
:10149000C160204600F0E4FC2068016921F490411D
:1014A00001612068416921F02A0141612068C16819
:1014B00041F40051C1606564202084F8410084F843
:1014C00042006563002070BD30B585B000240094F3
:1014D0000194029403940068184988422BD118485B
:1014E000C16941F40031C161C16901F40031049165
:1014F000816941F0040181618069124D00F00400AE
:10150000049004200090022001900320039069467B
:101510002846FEF787FF0820CDE9000469462846E3
:101520000294FEF77FFF002203212620FFF7A4FA92
:101530002620FFF793FA05B030BD000000440040BC
:10154000001002400008014070472DE9F8430446AE
:1015500090F84100984616460D46202802D00220F9
:10156000BDE8F88385B17EB100206064212084F855
:101570004100FFF755F8A6848146E684A06820273D
:10158000B0F5805F02D003E00120E9E7206910B1E7
:101590002E4600250EE000260CE08021204600F0BB
:1015A000BBFCA8B9C6B116F8010B21684860E08CF5
:1015B000401EE084E08C4B464FF00002CDF80080E6
:1015C0000028EAD14FF04001204600F0A5FC40B1D0
:1015D00084F841700320C3E735F8020BC0F308001C
:1015E000E3E784F841700020BAE77047FEE701683E
:1015F0004A69D24352050FD46FF480624A610021D8
:1016000040F8301F202242738173026942F00402C5
:101610000261017301207047002070472DE9F843F3
:10162000044600680D46DDE90897016898461646AD
:1016300041F4807101604B4600224FF001112046B9
:10164000009700F06BF848B120680068C00502D52B
:101650004FF4007020640320BDE8F883216805F092
:10166000FE0008613B464A461549204600F09EF8B8
:1016700088B920684169806900903A464946204609
:1016800000F0F2F848B1206C042804D12068016809
:1016900041F4007101600120DEE7F5B2B8F1010FFD
:1016A00009D02168300A08613A464946204600F0D0
:1016B000DBF80028E7D1206805610020CCE70000B6
:1016C0000200010070B516460D4604461EE0204695
:1016D000FFF78DFF08B1012070BD681C16D0FEF722
:1016E0009FFF801BA84200D885B920684069C0438D
:1016F00040070BD5002044F8300F20216173A07300
:10170000216941F0200121612073E4E720684069EC
:10171000C0434007DBD4002070BD00002DE9F04736
:10172000984617460D460446C1F30746DDF820905B
:101730002AE000BFB8F1FF3F26D0FEF771FFA0EB13
:101740000901414502D8B8F1000F1DD12068012ED2
:1017500016D0806925EA00000004000C12D0002099
:10176000B84211D1002044F8300F20216173A073DA
:10177000216941F02001216120730120BDE8F0873B
:101780004069E7E70120EBE72068012E0AD0806975
:1017900025EA00000004000C06D00020B842C9D0A1
:1017A0000020EBE74069F3E70120F7E72DE9F04778
:1017B000984616460D4604464FF000094FF0200AA1
:1017C000C1F3074723E020684069C043400515D4B2
:1017D0002068016841F40071016021686FF4806045
:1017E0004861C4F8309084F83DA084F83E90216CA4
:1017F00041F00401216484F83C9021E0701C06D083
:10180000FEF70EFFA0EB0800B04203D816B1012F7F
:101810001FD021E02068012F15D0806925EA000043
:101820000004000C18D000BF44F8309F84F80DA0CD
:1018300084F80E90216941F02001216184F80C9018
:101840000120BDE8F087406925EA00000004000C93
:10185000EAD12068406901E02068806925EA00003B
:101860000004000CAFD1ECE770B516460D460446F7
:101870001EE02046FFF7BBFE08B1012070BD681CCA
:1018800016D0FEF7CDFE801BA84200D885B920688F
:101890004069C04300060BD5002044F8300F2021DA
:1018A0006173A073216941F0200121612073E4E795
:1018B00020684069C0430006DBD4002070BD0000F2
:1018C0000024104F104D661E3146386801F042FD6D
:1018D0003146286801F03EFD641C22460BA10F48EA
:1018E00000F086FB10230D4A0421002000F030F99F
:1018F00000231A461946286801F004FC08A000F0ED
:1019000067FBE1E70000002088000020707265732B
:1019100073206B65793A256420000000FC240020C8
:101920004B6579315F7461736B0D0A00F0B585B05A
:10193000002428480094019402940394816941F0A2
:1019400010018161816901F010010491816941F008
:1019500020018161816901F020010491816941F0D8
:1019600004018161816901F004010491816941F000
:10197000080181618069184F00F008004FF4C045EC
:101980000490002229463846FEF744FE00950226C0
:1019900001250396CDE9015469463846FEF742FD1C
:1019A0000E486946CDE900600D4E02953046FEF7BF
:1019B00039FDE8028DE8310069463046FEF732FD18
:1019C000002204210720FFF757F80720FFF746F809
:1019D00005B0F0BD001002400010014000002110D1
:1019E000000C01400D4810B50B4901600C494160E5
:1019F00000214FF480428160C0E90312416181619E
:101A0000C1610162FEF712FE002803D0BDE810405C
:101A1000FEF765BC10BD000000540040BC00002073
:101A2000A08601000C4810B50A4901604FF4165118
:101A30004160002181600C22C160C0E90412816113
:101A4000C161FFF70FFD002803D0BDE81040FEF78D
:101A500046BC10BD0044004010010020FEE7FEE738
:101A600070B5002404F1B000C0B200F08DF8002081
:101A700000F08AF8102000F087F80025002000F020
:101A800095F86D1CEDB2802DF8D3641CE4B2082CDF
:101A9000E8D370BD10B5C820FEF792FCBDE8104039
:101AA00000F07CBA10B50446B031C8B200F06CF852
:101AB000102040EA141000F067F804F00F00BDE8B1
:101AC000104000F061B800002DE9F041203A0024F8
:101AD0000D468046D6B27F2803D900208D1C804653
:101AE000EDB2102B29460FD0FFF7DCFF164906EBAD
:101AF000460001EB4005285D00F058F8641CE4B294
:101B0000062CF8D3BDE8F081FFF7CCFF0F4F00BFE4
:101B100004EB0610385C00F049F8641CE4B2082CB1
:101B2000F6D36D1CE9B24046FFF7BCFF5FF000043E
:101B300004EB06103844007A00F038F8641CE4B274
:101B4000082CF5D3DEE70000EA390008123C000853
:101B50002DE9F041984617460E46044600250DE053
:101B6000434631462046FFF7AFFF0834E4B2782CF5
:101B700002D90024B61CF6B26D1CEDB27A5D002AC3
:101B8000EED1BDE8F081000001B584B001214FF431
:101B9000807204A88DE807000B46002278210248D5
:101BA000FEF708FE05B000BDBC00002001B584B002
:101BB00001214FF4807204A88DE807000B464022F3
:101BC00078210248FEF7F6FD05B000BDBC000020FC
:101BD000FEF7B8BA0024154F154D4FF480464FF468
:101BE0007A784FF0FF3931463846FEF70BFD404614
:101BF00001F090F84946286801F0ACFB2246641CCD
:101C0000A4B20CA10F4800F0F3F9002110230D4AF3
:101C10000846FFF79DFF00231A461946286801F081
:101C200071FA09A000F0D4F9DDE7000000100140CE
:101C300088000020526C65645F7461736B3A2564A0
:101C400020000000FC240020526C65645F74617306
:101C50006B0D0A00FEF754BA01F0BEB930B58FB073
:101C600028216846FEF7C3FA14210AA8FEF7BFFA36
:101C700001210804CDE900100024029402250491FA
:101C8000CDE907504FF4E01009906846FFF722F8BD
:101C900008B172B6FEE70F20CDE90A054FF4806067
:101CA000CDE90C4002210AA80E94FEF717FF002888
:101CB00001D072B6FEE70FB030BD70470148FFF7A4
:101CC000F6B9000058010020F0B50268194B1A4C13
:101CD0001A4D4FF08047984205D0B84203D0A04239
:101CE00001D0A84203D122F070064A6832439842DC
:101CF00005D0B84203D0A04201D0A84203D122F4BB
:101D00004074CA6822434C6922F080022243026078
:101D10008A68C2620A688262984201D109690163D5
:101D2000012141610169C90703D0016921F0010165
:101D30000161F0BD002C014000040040000800409B
:101D400010B5406A0021C185C184FFF753FA10BD68
:101D500001680C3151E8002F22F4907241E8002311
:101D6000002BF5D10168143151E8002F22F0010257
:101D700041E80023002BF5D1016B012909D101684D
:101D80000C3151E8002F22F0100241E80023002B13
:101D9000F5D1202180F8421000210163704708B579
:101DA00090F84210222901D0022008BD82684FF429
:101DB00080539A4201D1016921B1816A9A421BD0B4
:101DC0004AB10AE00268816A5268C2F308020A80D6
:101DD000816A891C08E0026972B10268526802F0E7
:101DE0007F020A70816A491C8162C18D491E090403
:101DF000090CC18503D01BE002685268F1E7016855
:101E0000CA6822F02002CA600168CA6822F480729F
:101E1000CA6001684A6922F001024A61202180F803
:101E2000421000214163026B012A03D0FFF78CFBB3
:101E3000002008BD016301680C3151E8002F22F039
:101E4000100241E80023002BF5D101680A68D20690
:101E500002D50A6849680091818DFFF7CAF9E7E762
:101E600070B5044600680169E26821F440511143ED
:101E700001612169A0680843616908432168CA6853
:101E800041F20C639A430243CA6020684169A26927
:101E900021F44071114341611E492068884202D1FA
:101EA000FEF7E2FE01E0FEF7CFFE00EBC00101EB22
:101EB0000012606864218000B2FBF0F3B3FBF1F321
:101EC0006FF018067343B2FBF0F5B2FBF0F605EBCA
:101ED0008305322303EB0515B5FBF1F5B6FBF1F6EF
:101EE00005F0F00505EB0615B2FBF0F6B2FBF0F0DD
:101EF000B0FBF1F06FF01802504306EB800003EBEB
:101F00000010B0FBF1F0216800F00F002844886059
:101F100070BD0000003801402DE9F843984617468F
:101F20000D460446089E24E0701C22D0FEF778FB84
:101F3000A0EB0800B0421AD8CEB12068C1684907AA
:101F400017D5802D15D0402D13D00168C94309073E
:101F50000FD401680025406800902046FFF7F8FE86
:101F60000820606484F840500120BDE8F883032015
:101F7000FBE72068006835EA000004D00020B84282
:101F8000D2D00020F1E70120F9E700000148FFF777
:101F900033B9000010010020FEE70000FEB5002468
:101FA000094F4FF4807501263819CDE90006012349
:101FB0000022782102950548FEF7FCFB641CE4B280
:101FC0001B2CF1D3FEBD00009C000020BC000020B3
:101FD0000FB4054B10B503A9044A029800F03CF871
:101FE00010BC5DF814FB0000B9210008B800002007
:101FF0000FB4084B10B504A902AA039800F02CF8FE
:10200000044602A9002000F0D1F8204610BC5DF87B
:1020100014FB0000AD2100080907090E002804DBAD
:1020200000F1E02080F80014704700F00F0000F18C
:10203000E02080F8141D704702E008C8121F08C194
:10204000002AFAD170477047002001E001C1121F39
:10205000002AFBD1704700002DE9FF4F89B09B4655
:102060000446002506E025280BD05A460B999047D8
:10207000641C6D1C20780028F5D10DB02846BDE801
:10208000F08F0027B8460122474900E0074314F8C3
:10209000013F203B02FA03F00842F7D120782E28B6
:1020A00019D114F8010F47F004072A280ED06FF059
:1020B0002F022078A0F1300109290CD808EB880103
:1020C00002EB410100EB0108641CF2E70A98641C72
:1020D00050F8048B0A9020780028CED0642808D0CD
:1020E000692806D075281ED05A460B9990476D1C5A
:1020F00058E00A994FF00A0901C90A91002802DA4A
:1021000040422D2102E0390504D52B218DF8201005
:10211000012103E0F90704D02021F7E78A4608AE41
:102120000DE00021FAE70A994FF00A0901C90A9166
:10213000F7E74946FEF766F8303106F8011D00283A
:10214000F7D1ADEB060000F12009780701D44FF07C
:102150000108C84502DDA8EB090000E00020804628
:10216000002706E008A85A46C05D0B9990476D1CF1
:102170007F1C5745F6DB04E030205A460B99904708
:102180006D1CB8F10001A8F10108F5DC05E016F8B6
:10219000010B5A460B9990476D1CB9F10001A9F14A
:1021A0000109F4DC641C65E7092801000A68531C76
:1021B0000B6010707047000013B54FF6FF730122DB
:1021C00069460248FFF7C1F900981CBD10010020C4
:1021D0001CB5FEF7C7FBFFF741FDFFF7A7FBFFF7B5
:1021E00021FCFFF7FFFBFFF755FCFFF739FC0A491D
:1021F0000220CDE900010023402208A10A4801F095
:1022000069F9012805D009A0FFF7E2FE00F076FE8B
:10221000FEE70DA0F8E700009800002073746172DB
:10222000745F7461736B0000092A00086372656152
:10223000742073746172745F7461736B2066616C77
:1022400073650D0A00000000637265617420737489
:102250006172745F7461736B2073757373636573FC
:102260000D0A00002DE9F0411E4C0F460546E668B8
:102270002068001D00F07CFC38B9206890F82C1014
:1022800001208840216981432161681C15D1A7B1D3
:10229000154922684868906023688268DA6022687D
:1022A0008368121D5A602268121D82602068416195
:1022B0000868401C0860BDE8F08120683544B542DC
:1022C0004560216805D2E06BBDE8F041091D00F0D2
:1022D00077BCA06B091D00F073FCA06A8542EAD2AE
:1022E000A562E8E714000020C00400202DE9F041B9
:1022F000054600F089FC354CA068401CA0602068B1
:10230000334F10B1606930B32BE02560A06801281D
:1023100027D1002606EB860007EB800000F042FC88
:10232000761C202EF6D32B4800F03CFC29481430B4
:1023300000F038FC2748283000F034FC25483C30B9
:1023400000F030FC2348503000F02CFC2148A06302
:102350001430E06305E02068E96AC06A884200D86A
:102360002560606A0121401C6062E86A2269814040
:102370001143216100EB800007EB80004068A860FA
:102380008168E9608268291D51608160E86A00EB1C
:10239000800007EB8001696157F82010491C47F85D
:1023A000201000F03FFC606900280CD02068E96A2A
:1023B000C06A884207D208494FF080500860BFF3D6
:1023C0004F8FBFF36F8FBDE8F08100001400002035
:1023D000F00100207004002004ED00E010B500F0D2
:1023E00013FC0E4C2068A0B90D4800F0DBFB0C4834
:1023F000143000F0D7FB0A48E0601430206100225E
:102400000C210A2000F010FE206010B105A100F0A0
:1024100041FCBDE8104000F005BC00005400002065
:10242000D4040020546D72510000000030B4026CDE
:102430000B46002A0BD0C1681144C1608468A142D8
:1024400001D30168C16030BC1846FDF7B7BE30BC8F
:1024500070472DE9F041856B174604460026026C53
:1024600082B1C7B1E068FDF7A9FEE168206C091AE6
:10247000E1602268914202D2A168081AE060022F4E
:1024800016D017E02068A8B9A06801F0E9F8064660
:102490000020A0600EE06068FDF790FE216C60688F
:1024A00008446060A168884204D32068606001E04D
:1024B00005B16D1E6D1CA5633046BDE8F08110B5F9
:1024C0000446006B00F0B8FB2046BDE8104000F069
:1024D000B3BB00000E484FF40051420706D0C01DA8
:1024E0000B4920F00700411AC1F50051094A0023A9
:1024F0000144C2E900030839143A21F007011160D0
:102500004B600B600B1AC0E9001393605360704777
:10251000FC04002080000020144E154CA6F52F77F7
:102520004FF08058DFF84C9012E000BF00F06CFBD9
:10253000F068C568281D00F01BFBA068401EA06065
:102540006068401E606000F06DFB2846FFF7B7FF33
:1025500060680028EAD138680128F9D9C9F80080F4
:10256000BFF34F8FBFF36F8FF2E70000AC04002082
:102570001400002004ED00E02DE9F0479946DDE964
:10258000096480466FF00303206B03EB8202089D11
:10259000104420F0070761B1002023180A5C83F87B
:1025A00034200A5C12B1401C1028F6D3002084F8B5
:1025B0004300202D00D31F25E562201D656400F037
:1025C000FCFA04F1180000F0F8FA2461C5F12000CB
:1025D0006462A0614A464146384600F003FA206032
:1025E000002E00D03460BDE8F087000030B51149FE
:1025F00000E011460A688242FBD34B685C188442B3
:1026000003D1406818444860084643681C18944247
:1026100009D1084C143C2468A24209D052681A44DB
:1026200042600A6812680260814200D0086030BDD2
:102630000460F9E78000002070B5002441600B4D74
:102640000061914206D8D11A8269914206D2011DD9
:10265000286907E09A4203D2994201D3012403E09A
:10266000011DE86800F0ACFA204670BD540000205F
:1026700010B5044600F0C8FAA06B28B15FF0000462
:1026800000F0D0FA204610BD0124F9E770B50646E7
:102690000D480D46C068C068C468201D00F068FA87
:1026A00094F82400410705D52A463146204600F01B
:1026B000ABF803E000F0FE0084F824002046216A15
:1026C000BDE8704008470000540000207FB5324E3E
:1026D0005AE00098002857DB029C606910B1201D69
:1026E00000F046FA03A800F0B1F8054600980A2861
:1026F0004AD2DFE800F0490505282E3D0505282EC1
:1027000094F824002A4640F0010084F8240001993E
:10271000A069019B01442046FFF78EFF38B394F86F
:102720002400410707D50198A1692A4601442046A3
:1027300000F06AF803E000F0FE0084F82400216A4B
:102740002046884720E014F8240F00F0FE00207097
:102750001AE094F824002B4640F0010084F824008D
:102760000198A06141191A462046FFF765FF0BE06A
:1027700094F82400810703D4204600F05DFA03E0BA
:1027800000F0FE0084F8240000226946306800F062
:1027900069FD00289DD17FBD54000020F8B50D468D
:1027A000064600F0D7FB684600F050F80446009853
:1027B00010B101F059F8F8BD1148ADB101690968CF
:1027C000D9B10025311B2A46006800F081FA01F0DA
:1027D0004BF80028EFD10B494FF080500860BFF351
:1027E0004F8FBFF36F8FF8BDA642EBD801F03CF8D6
:1027F00021463046FFF74AFFF8BD0125E2E7000019
:102800005400002004ED00E070B516460C46054665
:1028100004E0A869296A044428468847A869234631
:10282000011932462846FFF707FF0028F1D170BD95
:102830000548816B096821B1816BC96809688162AB
:1028400070474FF0FF31FAE7140000202DE9F04106
:10285000064600F06DFE0E4C0546A068854214D277
:102860004FF0FF3704E0C06839460068FFF70EFFFD
:10287000E06801680029F6D12169C4E9031001204C
:1028800030602846A560BDE8F0810020F8E7000030
:1028900054000020102080F31188BFF34F8FBFF346
:1028A0006F8FFEE7074CE068016841B1C068002106
:1028B000D0F80000FFF772FFFFF708FFF3E70121F0
:1028C0000020F7E7540000202DE9F041044600F015
:1028D0009BF994F9455004F1240609E0606A48B177
:1028E000304600F05BFF08B100F084FA6D1E6DB257
:1028F000002DF3DC4FF0FF3684F8456000F092F9CC
:1029000000F082F994F9445004F1100709E02069BD
:1029100048B1384600F042FF08B100F06BFA6D1E76
:102920006DB2002DF3DC84F84460BDE8F04100F0A6
:1029300079B9000070B50446002600F00BFB224D6B
:10294000286808B9FFF7C6FDCCB304F00700C0F152
:102950001000C1438C4232D8211800292FDD68684D
:1029600081422CD8184814300246146801E02046F1
:10297000144662688A4202D22268002AF7D12A6885
:1029800094421CD006682268026060680836421AC9
:10299000102A04D9601842606160FFF727FE616861
:1029A0006868401A6860AA68904200D2A86041F046
:1029B0000040606000202060E868401CE86000F093
:1029C00053FF304670BD00006C00002004490868C9
:1029D00018B10868826C521C826408687047000055
:1029E0001400002010B5031F4FF080741C601B1FE3
:1029F00021F001011960191F024B0B601439403896
:102A00000A6010BD952800081CB5012000F0FAFAF4
:102A10002249032208600021012000F005FB204923
:102A20000023802208601D490320091DCDE9000113
:102A30001CA11F4800F04EFD012828D01DA000BF9A
:102A4000FFF7C6FA154905200831CDE9000100233A
:102A500080221EA1204800F03DFD012819D01FA0B2
:102A6000FFF7B6FA0D4908200C31CDE9000100232B
:102A7000802220A1224800F02DFD01280BD021A0AA
:102A8000FFF7A6FABDE81C40002000F05BB923A0C8
:102A9000D6E729A0E4E72FA0F2E700008800002095
:102AA00000000020426C65645F7461736B0000007D
:102AB00055020008637265617420426C65645F743E
:102AC00061736B2066616C73650D0A00526C6564FE
:102AD0005F7461736B000000D51B00086372656151
:102AE0007420526C65645F7461736B2066616C73F3
:102AF000650D0A004B6579315F7461736B000000EE
:102B0000C11800086372656174204B6579315F7488
:102B100061736B2066616C73650D0A006372656199
:102B20007420426C65645F7461736B20737573739A
:102B30006365730D0A000000637265617420526C56
:102B400065645F7461736B20737573736365730D74
:102B50000A0000006372656174204B6579315F740F
:102B600061736B20737573736365730D0A000000E6
:102B7000D0E9013201699A60D0E901235A604A68BC
:102B8000824201D182684A60002202610868401EC8
:102B900008600868704700000148806870470000BE
:102BA0001400002000F108014FF0FF32C0E90112CB
:102BB000C16001610021016070470021016170471F
:102BC00030B50B685A1C02D000F1080202E002691D
:102BD00004E02246546825689D42FAD953684B6048
:102BE00099608A60516008610168491C016030BDCC
:102BF00042684A6093688B6093685960916008618D
:102C00000168491C01607047102080F31188BFF3F0
:102C10004F8FBFF36F8F02480168491C01607047F6
:102C20006800002003490868401E086001D180F355
:102C3000118870476800002070B500281BD0A0F1F3
:102C400008046068002816DA2168002913D120F0F2
:102C50000040606000F07EF9074D606869680844D4
:102C600068602046FFF7C2FC2869401C2861BDE867
:102C7000704000F0F9BD70BD6C0000204FF0E02006
:102C800000210161816102494161072101617047B1
:102C90003F19010070B50022002915D00B4C00230C
:102CA00004EBC3056E68864202D104EBC30207E061
:102CB0001AB954F8336006B92A465B1C0A2BEFD3C5
:102CC000002A01D0C2E9001070BD0000A001002060
:102CD00070B515460E460446FFF796FF94F944106A
:102CE0000020491C01D184F8440094F94510491C86
:102CF00001D184F84500FFF795FFA06B28B92A465B
:102D0000314604F1240000F08BF82046BDE8704005
:102D1000FFF7DABD10B5020009D000F01BF9002161
:102D20001046FFF79FFA00F09FFD002807D10449E5
:102D30004FF080500860BFF34F8FBFF36F8F10BD0F
:102D400004ED00E070B50546FFF75EFF214C05B9C4
:102D50002568281DFFF70CFF58B9E86A1E4A00EBEA
:102D6000800152F8211021B9012181402069884356
:102D70002061A86A18B105F11800FFF7F9FE606A32
:102D8000401C60622068854207D1291D1348FFF767
:102D90002FFF6068401C606004E0A068401EA060D7
:102DA000FFF746FDFFF73EFF2068854202D0284628
:102DB000FFF785FB606900280AD02068854207D1AB
:102DC00007494FF080500860BFF34F8FBFF36F8FFC
:102DD00070BD000014000020F0010020AC040020B1
:102DE00004ED00E002490A6A0260C9684160704768
:102DF0001400002001490120C86170471400002020
:102E000010B50C46054909681831FFF7D9FE204670
:102E1000BDE810400121FFF725BA00001400002092
:102E2000F0B40C460D4943680D68EB619D680E686F
:102E300035620D689E68183575600D6818359D609F
:102E4000096888620168491C01600AB14FF0FF34CB
:102E50002046F0BC1146FFF705BA00001400002020
:102E600070B5040044D0606C884200D30146E06A2B
:102E700088423DD0A26C012A3AD1E162A269002ABF
:102E800002DBC1F12001A1611A4D00EB80006169F4
:102E900005EB800081422BD1201DFFF769FE16490A
:102EA000012230B994F82C000B6902FA00F0834338
:102EB0000B61E06A0B6982401A430A6100EB8000F3
:102EC00005EB80004068A0608168E1608268211D98
:102ED00051608160E06A00EB800005EB800060617A
:102EE000E06A00EB800055F82010491C45F82010DE
:102EF00070BD0000F0010020140000207CB51148D6
:102F00000025CDE900502B4640220FA1104800F0CB
:102F1000E1FA0C4C2C3C012812D100F033FD0128C1
:102F20000ED1102080F31188BFF34F8FBFF36F8F46
:102F30004FF0FF30A06201206061E56000F034F8DE
:102F4000206B7CBD4000002049444C45000000003F
:102F5000192500080248416B491C41637047000075
:102F6000140000200E48416B11B10121C16170476E
:102F70000021C16101690B4AB1FA81F1C1F11F0160
:102F800001EB810102EB810101F108034A685268FB
:102F90004A609A4201D152684A60D1680160704724
:102FA00014000020F0010020094810B5016841F428
:102FB00070010160016841F070410160FFF75EFE41
:102FC000044900200860FDF7ADF8002010BD0000A6
:102FD00020ED00E06800002010B5102080F311887B
:102FE000BFF34F8FBFF36F8F00F0A8FA18B10449F9
:102FF0004FF080500860002080F3118810BD000061
:1030000004ED00E010B502460021012000F00CF8AC
:10301000041E07D00021816001600B460A46C16092
:1030200000F070F8204610BD70B50E4605004FF058
:10303000000418D0601EB0FBF5F0B04213D305FBBE
:1030400006F010F1490F0ED84830FFF773FC04006A
:1030500009D004F1480120463EB10160C0E90F5695
:10306000012100F005F8204670BD0060F6E7000081
:103070002DE9F0410F4604004FF001063CD0E06B13
:10308000C8B3B51EB5FBF0F1206C814234D3FFF715
:10309000BBFDD4E90F20216802FB0011A1600021D3
:1030A000A163216861600A46D4E90F01401E00FB5C
:1030B00001212046E16000F8445F457004F11000F2
:1030C0004FB1FFF76FFD04F12400FFF76BFD00BF68
:1030D000FFF7A8FD11E021690029F9D000F05EFB9F
:1030E0000028F5D006494FF080500860BFF34F8F9D
:1030F000BFF36F8FECE7FFE700263046BDE8F081B5
:1031000004ED00E02DE9FF4700273B4E82B09946D1
:103110008A460446B8464FF0805500BFFFF774FD5D
:10312000A06BE16B884206D3B9F1020F03D004987B
:10313000C0B1D7B11DE04A4651462046FFF789F994
:10314000616A19B104F1240000F028FB20B1356058
:10315000BFF34F8FBFF36F8FFFF764FD012006B001
:10316000BDE8F087FFF75EFD21E06846FFF73AFE15
:103170000127FFF757FDFFF7EDFEFFF745FD94F937
:103180004400401C01D184F8448094F94500401C5F
:1031900001D184F84580FFF745FD04A9684600F099
:1031A0006DF930B12046FFF78FFB00F05DFB00208A
:1031B000D5E7FFF729FDA06BE16B884213D1FFF73C
:1031C00031FD04F110000499FFF71AFE2046FFF7C5
:1031D0007BFB00F049FB0028A0D13560BFF34F8F87
:1031E000BFF36F8F9AE7FFF71DFD2046FFF76CFBDB
:1031F00000F03AFB92E7000004ED00E02DE9F04119
:1032000004460F461020EFF3118680F31188BFF3B8
:103210004F8FBFF36F8FA16BE06B88421CD994F97D
:103220004550491CA163681C08D0FFF7B5FC8542D6
:1032300002D26D1C84F8455001200EE0606A00281F
:10324000FAD004F1240000F0A9FA0028F4D0002FED
:10325000F2D001203860EFE7002086F31188BDE846
:10326000F08100002DE9F7470026DFF8E48083B005
:103270008A460446B1464FF0805700BFFFF7C4FCB2
:10328000A56BC5B151462046FFF7D0F86D1EA5636A
:10329000206950B104F1100000F080FA28B1C8F89C
:1032A0000070BFF34F8FBFF36F8FFFF7BBFC0120A0
:1032B00006B0BDE8F087059808B11EB106E0FFF73B
:1032C000B1FC27E06846FFF78DFD0126FFF7AAFC59
:1032D000FFF740FEFFF798FC94F94400401C01D131
:1032E00084F8449094F94500401C01D184F845903D
:1032F000FFF798FC05A9684600F0C0F800282046B2
:103300000AD0FFF7E1FA00F0AFFA2046FFF7B0F974
:103310000028B3D00020CBE7FFF7AAF990B104F161
:1033200024000599FFF76CFD2046FFF7CDFA00F069
:103330009BFA0028A2D1C8F80070BFF34F8FBFF3EB
:103340006F8F9BE72046FFF7BFFA00F08DFA95E7F5
:1033500004ED00E02DE9F3430026DFF81C8183B083
:1033600004463546B1464FF0805700BFFFF74CFC8E
:10337000A06BC8B1401EA063206810B9FFF726FB00
:10338000A060206950B104F1100000F007FA28B1E4
:10339000C8F80070BFF34F8FBFF36F8FFFF742FC89
:1033A000012005B0BDE8F083049808B11EB106E025
:1033B000FFF738FC5EE06846FFF714FD0126FFF7D3
:1033C00031FCFFF7C7FDFFF71FFC94F94400401CD8
:1033D00001D184F8449094F94500401C01D184F84F
:1033E0004590FFF71FFC04A9684600F047F8002845
:1033F000204612D0FFF768FA00F036FA2046FFF7B1
:1034000037F90028B2D075B3FFF7FEFB606A58B3F6
:10341000206B0068C0F1200128E0FFF729F9E0B136
:10342000206838B9FFF7F0FBA06800F05FF90546A7
:10343000FFF7F8FB04F124000499FFF7E1FC2046B4
:10344000FFF742FA00F010FA00288FD1C8F8007098
:10345000BFF34F8FBFF36F8F88E72046FFF734FA33
:1034600000F002FA82E705E0FFE70021A068FFF71D
:10347000F7FC9DE7002094E704ED00E02DE9F04122
:103480000C460546FFF7C0FB114EF2686B682168D9
:10349000D01A4F1C0AD02F68D6F820C000266745E6
:1034A00006D0934204D8012526600BE0002509E0F0
:1034B000814205D9081A20602846FFF793FCF5E7FA
:1034C00001252660FFF7AEFB2846BDE8F08100002D
:1034D000140000202DE9FF5F8346DDE90E87994641
:1034E00016468A469000FFF725FA05001DD05420A5
:1034F000FFF720FA040015D05421FCF778FE25636D
:103500000021CDE90241CDE900874B4632465146C4
:103510005846FFF731F82046FEF7E8FE012004B0D8
:10352000BDE8F09F2846FFF787FB4FF0FF30F6E736
:103530000148C06870470000140000202DE9F041E8
:10354000454C0026606B28B1A069401CA061304644
:10355000BDE8F081E5686D1CE56008D1A06BE16B0A
:10356000A163E063206A401C2062FFF761F9A16A51
:103570003A488D420FD34FF0000EA16B096839B164
:10358000A16BC968C9684A68954212D2A26202E07A
:103590004FF0FF31A1622168C96A01EB810150F847
:1035A0002100012800D90126E0690028CFD001269A
:1035B000CDE7D1E902724B69BA60D1E902277A609E
:1035C0005F680A1D974201D1CF685F60C1F814E0BF
:1035D0001F687F1E1F60D1F828C0BCF1000F15D0F6
:1035E000D1E907379F60D1E907377B60DCF80470C9
:1035F00001F118039F4202D10B6ACCF80430C1F8E4
:1036000028E0DCF800305B1ECCF80030CB6A0127E4
:10361000D4F810C09F4047EA0C07276103EB8303EF
:1036200000EB83035B688B609F68CF609F687A6064
:103630009A60CA6A02EB820200EB82034B6150F887
:1036400022305B1C40F82230C96A2268D26A91425B
:1036500093D9012691E7000014000020F00100201A
:1036600010B504004FF000013AD0A06C401EA064D9
:10367000636CE26A9A4233D090BB201DFFF778FA60
:10368000184A012130B994F82C00136901FA00F0AE
:1036900083431361606CE062C0F12000A061E06AC6
:1036A00013698140194311610F4900EB800001EB60
:1036B00080004068A0608268E2608368221D5A60D2
:1036C0008260E06A00EB800001EB80006061E06AEC
:1036D00000EB800051F82020521C41F820200121ED
:1036E000084610BD14000020F001002070B5040051
:1036F0004FF0000047D0274DE16A2A68D26A914214
:1037000042D2A069002804DB2868C06AC0F120000A
:10371000A061214E01EB8101606906EB81018842C5
:103720002DD1201DFFF724FA012130B994F82C0087
:103730002A6901FA00F082432A612868C06AE062BF
:103740002A6981401143296100EB800006EB80006B
:103750004068A0608168E1608268211D51608160DD
:10376000E06A00EB800006EB80006061E06A00EB3D
:10377000800056F82010491C46F8201002E0286806
:10378000C06AE062012070BD616C2A68D26A914211
:10379000F8D370BD14000020F001002070B5C0689F
:1037A000C068D0E90732816A9A60D0E907235A607D
:1037B0004B6800F11802934201D1036A4B60002369
:1037C00083620C68641E0C6024494D6B01249DB11A
:1037D000234D6B68C3619E6806629E6872609A6042
:1037E00085622A68521C2A60C06A0A68D26A9042BE
:1037F00031D90120CC6170BDD0E902654269B56064
:10380000D0E9025675605668051DAE4201D1C66802
:103810005660436113685B1E1360C26A0E6904FA46
:1038200002F333430B610F4B02EB820203EB820284
:10383000526882609668C660966875609560C26AD4
:1038400002EB820203EB8205456153F822506D1CA6
:1038500043F82250C8E7002070BD0000140000208B
:1038600098040020F00100202DE9F04100242746B3
:10387000FFF7CAF93F4D686B401E6863686B00280C
:1038800072D1A8683C4B00264FF00108F0BB6BE0FA
:10389000D868C468D4E90721A06A9160D4E9071206
:1038A0005160426804F118018A4201D1216A4160E5
:1038B000A6620168491E0160D4E902216069916035
:1038C000D4E9021251604268211D8A4201D1E268A6
:1038D000426066610268521E0260E26AD5F810C05A
:1038E00008FA02F040EA0C00286102EB8200234A49
:1038F00002EB80004068A060D0F808C0C4F80CC09B
:10390000D0F808C0CCF80410816000E011E0E06A53
:1039100000EB800002EB8001616152F82010491C2D
:1039200042F82010E06A2968C96A884201D3C5F8C4
:103930001C8018680028ABD10CB1FEF779FFAC6988
:1039400044B100BFFFF7FAFD08B1C5F81C80641E42
:10395000F8D1AE61E86938B1094901273807086034
:10396000BFF34F8FBFF36F8FFFF75CF93846BDE8A9
:10397000F08100001400002098040020F0010020D5
:1039800004ED00E01CB50024FEF728FD084800689F
:1039900058B107490320091DCDE900010023402249
:1039A00004A10648FFF796FD044620461CBD000012
:1039B00054000020546D722053766300A52800083F
:1039C000010202030405060708090A0B0C0D0E0F7D
:1039D00010100000000000000000010203040607B0
:1039E00008090000000001020304000000000000BC
:1039F0000000002F000000000700070000147F14E3
:103A00007F1400242A7F2A120062640813230036E0
:103A10004955225000000503000000001C2241000F
:103A2000000041221C000014083E08140008083E53
:103A30000808000000A0600000080808080800004E
:103A400060600000002010080402003E5149453E1D
:103A50000000427F4000004261514946002141453B
:103A60004B31001814127F10002745454539003CA2
:103A70004A49493000017109050300364949493670
:103A800000064949291E000036360000000056365F
:103A90000000000814224100001414141414000043
:103AA0004122140800020151090600324959513ED1
:103AB000007C1211127C007F49494936003E414189
:103AC0004122007F4141221C007F49494941007F3A
:103AD00009090901003E4149497A007F0808087F29
:103AE0000000417F4100002040413F01007F081459
:103AF0002241007F40404040007F020C027F007F57
:103B00000408107F003E4141413E007F090909063B
:103B1000003E4151215E007F09192946004649496E
:103B200049310001017F0101003F4040403F001F3B
:103B30002040201F003F4038403F006314081463BA
:103B400000070870080700615149454300007F41A4
:103B5000410000552A552A55000041417F000004CC
:103B60000201020400404040404000000102040005
:103B7000002054545478007F48444438003844446A
:103B8000442000384444487F0038545454180008F6
:103B90007E0901020018A4A4A47C007F0804047814
:103BA0000000447D4000004080847D00007F10289C
:103BB00044000000417F4000007C04180478007C31
:103BC0000804047800384444443800FC24242418B1
:103BD0000018242418FC007C0804040800485454ED
:103BE000542000043F444020003C4040207C001C06
:103BF0002040201C003C4030403C00442810284419
:103C0000001CA0A0A07C004464544C441414141460
:103C1000141400000000000000000000000000007C
:103C20000000000000F80000000000000033300039
:103C3000000000100C06100C060000000000000040
:103C4000000040C07840C0784000043F04043F04B6
:103C50000400007088FC08300000001820FF211EBE
:103C60000000F008F000E018000000211C031E21F5
:103C70001E0000F00888700000001E212324192770
:103C8000211010160E0000000000000000000000CF
:103C90000000000000E018040200000000071820E7
:103CA000400000020418E000000000402018070057
:103CB0000000404080F0804040000202010F0102FD
:103CC0000200000000F0000000000101011F0101DE
:103CD0000100000000000000000080B07000000043
:103CE00000000000000000000000000101010101CF
:103CF0000101000000000000000000303000000062
:103D00000000000000008060180400601806010038
:103D1000000000E010080810E000000F1020201044
:103D20000F00001010F8000000000020203F2020AD
:103D30000000007008080888700000302824222144
:103D400030000030088888483000001820202011FA
:103D50000E000000C02010F8000000070424243FDB
:103D6000240000F808888808080000192120201184
:103D70000E0000E0108888180000000F11202011AC
:103D80000E0000380808C83808000000003F000096
:103D900000000070880808887000001C2221212281
:103DA0001C0000E010080810E00000003122221181
:103DB0000F00000000C0C000000000000030300014
:103DC0000000000000800000000000008060000093
:103DD00000000000804020100800000102040810CC
:103DE00020004040404040404000040404040404DB
:103DF0000400000810204080000000201008040289
:103E00000100007048080808F0000000003036018A
:103E10000000C030C828E810E00007182724231449
:103E20000B000000C038E0000000203C2302022705
:103E3000382008F8888888700000203F2020201152
:103E40000E00C0300808080838000718202020108D
:103E5000080008F808080810E000203F2020201083
:103E60000F0008F88888E8081000203F2020232051
:103E7000180008F88888E8081000203F2000030098
:103E80000000C03008080838000007182020221E53
:103E9000020008F808000008F808203F210101216D
:103EA0003F20000808F8080800000020203F2020DC
:103EB000000000000808F8080800C08080807F002B
:103EC000000008F888C028180800203F2001263884
:103ED000200008F8080000000000203F20202020DB
:103EE000300008F8F800F8F80800203F003F003FD5
:103EF000200008F830C00008F808203F200007180C
:103F00003F00E01008080810E0000F1020202010EB
:103F10000F0008F808080808F000203F21010101FF
:103F20000000E01008080810E0000F1824243850A2
:103F30004F0008F8888888887000203F2000030C14
:103F4000302000708808080838000038202121221D
:103F50001C00180808F8080818000000203F20007E
:103F6000000008F808000008F808001F20202020A2
:103F70001F000878880000C83808000007380E01C4
:103F80000000F80800F80008F800033C0700073CB0
:103F90000300081868808068180820302C03032C60
:103FA00030200838C800C83808000000203F200032
:103FB000000010080808C8380800203826212020F2
:103FC0001800000000FE020202000000007F4040D6
:103FD0004000000C30C00000000000000001063866
:103FE000C00000020202FE000000004040407F00CE
:103FF00000000000040202020400000000000000B3
:1040000000000000000000000000808080808080B0
:104010008080000202040000000000000000000098
:1040200000000000808080800000001924222222ED
:104030003F2008F8008080000000003F1120201180
:104040000E000000008080800000000E1120202063
:104050001100000000808088F800000E1120201060
:104060003F200000808080800000001F222222224A
:104070001300008080F0888888180020203F2020CE
:1040800000000000808080808000006B94949493F6
:10409000600008F8008080800000203F21000020A0
:1040A0003F2000809898000000000020203F202042
:1040B0000000000000809898000000C08080807F91
:1040C000000008F8000080808000203F24022D308E
:1040D0002000000808F8000000000020203F2020F9
:1040E00000008080808080808000203F20003F2072
:1040F000003F8080008080800000203F2100002061
:104100003F200000808080800000001F20202020B1
:104110001F00808000808000000080FFA12020110F
:104120000E000000008080808000000E112020A082
:10413000FF80808080008080800020203F21200040
:10414000010000008080808080000033242424242B
:104150001900008080E0808000000000001F202007
:1041600000008080000000808000001F20202010C0
:104170003F20808080000080808000010E30080693
:10418000010080800080008080800F300C030C30A4
:104190000F0000808000808080000020312E0E31D2
:1041A0002000808080000080808080818E701806D2
:1041B000010000808080808080000021302C22213E
:1041C000300000000000807C020200000000003F80
:1041D00040400002027C800000000040403F0000A0
:1041E000000000000000FF00000000000000FF00D1
:1041F00000002010E824272424E424342C20E000AC
:1042000000000000000000000000000000000000AE
:10421000000080601F090909097F090949897F0099
:10422000000000000000000000000000000000008E
:1042300000000000FC242424FC252624FC24242443
:10424000040000000000000000000000000000006A
:10425000000040308F80844C55252525554C8080AA
:1042600080000000000000000000000000000000CE
:104270000000008060F80704E4A4A4BFA4A4E40440
:10428000000000000000000000000000000000002E
:104290000000010000FF40407F4A4A4A4A4A7F40EE
:1042A00040000000000000000000000000000000CE
:1042B00000000000F888888888FF88888888F800CF
:1042C00000000000000000000000000000000000EE
:1042D000000000001F080808087F888888889F80E1
:1042E000F0000000000000000000000000000000DE
:1042F00000000000FE0282828282FA828282828232
:1043000002000000000000000000000000000000AB
:10431000000080601F40404040407F404044584083
:10432000400000000000000000000000000000004D
:104330000000008060F80704E4A4A4BFA4A4E4047F
:10434000000000000000000000000000000000006D
:104350000000010000FF40407F4A4A4A4A4A7F402D
:10436000400000000000000000000000000000000D
:10437000000000000000000000000000000000003D
:10438000000000000000000000000000000000002D
:1043900000000000363600000000000000000000B1
:1043A000000000000000000000000000000000000D
:1043B00000000000D443000800000020BC00000002
:1043C0003820000890440008BC0000205438000049
:1043D000482000080000000001000000100000005C
:1043E0000000000000127A00000000000000000041
:1043F00000000000000000000000000000000000BD
:1044000000000000000000000000000000000000AC
:1044100000000000000000001F000000000000007D
:10442000000000000000000000000000000000008C
:10443000000000000000000000000000AAAAAAAAD4
:10444000000000000000000000000000000000006C
:10445000000000000000000000000000000000005C
:10446000000000000000000000000000000000004C
:10447000AE001040B081FFA1A6A83FC8D300D580F0
:10448000D805D9F1DA12D8308D14AF000000000041
:04000005080000ED02
:00000001FF
