:020000040800F2
:10000000D828002099010008E3140008D113000843
:10001000E1140008290200082D1800080000000063
:10002000000000000000000000000000E9140008CB
:100030002B02000800000000E5140008ED14000881
:10004000B3010008B3010008B3010008B3010008C0
:10005000B3010008B3010008B3010008B3010008B0
:10006000B3010008B3010008B3010008B3010008A0
:10007000B3010008B3010008B3010008B301000890
:10008000B3010008B3010008B3010008B301000880
:10009000B3010008B3010008B3010008B301000870
:1000A000B3010008B3010008B3010008B301000860
:1000B000B3010008B301000851150008B30100089E
:1000C000B3010008B3010008B3010008B301000840
:1000D000B3010008B301000821180008B3010008AB
:1000E000B3010008B3010008B3010008DFF80CD029
:1000F00000F088F80048004755190008D82800206B
:10010000224B19680868B0E8F00F80F30988BFF344
:100110006F8F4FF0000080F311884EF00D0E704786
:100120000000000006480068006880F3088862B696
:1001300061B6BFF34F8FBFF36F8F00DF00BF00BF0B
:1001400008ED00E0EFF30980BFF36F8F0F4B1A68E3
:1001500020E9F00F106008B54FF0100080F311880F
:10016000BFF34F8FBFF36F8F02F01AFA4FF000000A
:1001700080F31188BDE8084019680868B0E8F00FFE
:1001800080F30988BFF36F8F704700BF2000002005
:10019000EFF3058070470000064880470648004797
:1001A000FEE7FEE7FEE7FEE7FEE7FEE7FEE7FEE727
:1001B000FEE7FEE74F150008ED00000840EA0103E6
:1001C0009B0703D009E008C9121F08C0042AFAD20D
:1001D00003E011F8013B00F8013B521EF9D27047D1
:1001E000D2B201E000F8012B491EFBD27047002279
:1001F000F6E710B513460A4604461946FFF7F0FF26
:10020000204610BD064C074D06E0E06840F00103B3
:1002100094E8070098471034AC42F6D3FFF76AFF22
:10022000402C0008602C0008FEE7704772B6FEE71D
:10023000064C4FF496758021204600F074F928464C
:1002400002F0D4F802A001F009FBF4E70008014035
:10025000476C65645F7461736B0D0A0010B590F8AC
:1002600021100022022905D00421816380F820207A
:10027000012010BD01680B6823F00E030B600168BC
:100280000B6823F001030B6090F84030C46B012130
:1002900001FA03F3636080F8211080F820201046F3
:1002A00010BD000010B590F821100024022903D0E1
:1002B0000421816301243DE001680A6822F00E02F6
:1002C0000A6001680A6822F001020A601A4A01689D
:1002D000914201D1012121E0174A1432914201D10A
:1002E00010211BE0144A2832914201D1891515E0F2
:1002F000114A3C32914201D189140FE00E4A50322A
:10030000914202D14FF4803108E00B4A64329142AD
:1003100002D14FF4801101E04FF08071064A083A93
:100320005160012180F82110002180F82010416BDC
:1003300001B18847204610BD080002402DE9F84F62
:10034000DFF8B8910024A9F1040B23460F2709F127
:10035000040AABF1040EC9E00125A5402A40AA42D7
:100360007DD1674ED1F804C0ACEB0608B44532D05D
:1003700014DCBCF1030F3AD009DCBCF1000F2AD029
:10038000BCF1010F1CD0BCF1020F31D11DE0BCF15A
:10039000110F17D0BCF1120F2AD119E0B8F5881F40
:1003A00019D006DCB8F5803F15D0B8F5801F1FD1F5
:1003B00011E0B8F5001F0ED0B8F5041F18D10AE0FF
:1003C000CB6815E0CB681B1D12E0CB6808330FE04B
:1003D000CB680C330CE08B682BB1012B4FF008037A
:1003E00003D0456104E0042302E0056100E000233E
:1003F000FF2A01D8064601E000F104064FEA840511
:1004000001D9A5F12005D6F8008007FA05FC28EAF5
:100410000C0803FA05F548EA0508C6F800804D689F
:10042000ED0062D5374DAE6946F00106AE61AD69AB
:1004300024F0030605F001050095334D06EB050C8D
:10044000DCF80850A607360F07FA06F825EA080573
:10045000DFF8B880404503D14FF0000817E044E0D2
:10046000DFF8AC80404502D14FF001080FE0DFF823
:10047000A480404502D14FF0020808E0DFF89880E0
:10048000404502D14FF0030801E04FF0040808FA9C
:1004900006F848EA0508CCF808804D68D9F80060ED
:1004A000ED024D4601D5164300E096432E604D689F
:1004B000DAF80060AD02554601D5164300E09643D8
:1004C0002E604D68DBF80060AD035D4601D5164334
:1004D00000E096432E604D68DEF80060ED0375463F
:1004E00001D5164300E096432E60641C0D682A4631
:1004F000E5407FF431AFBDE8F88F0000080401400B
:1005000000001110001002400000014000080140EE
:10051000000C0140001001400014014080680840B8
:1005200000D001207047C26821EA02030A4043EA72
:100530000241016170470AB1016170470904FBE79C
:1005400001488068704700001000002070B504006A
:1005500025D094F83D00002520B984F83C50204671
:1005600000F0B8F8242084F83D002068016821F0EC
:10057000010101602068016841F4004101602068C8
:10058000016821F40041016000F04CFA4D4A6168B5
:10059000914201D84C4900E04C49884201D20120E7
:1005A00070BD4B492368B0FBF1F15E6826F03F0651
:1005B0000E435E606368934206D94FF496735943C5
:1005C0004FF47A73B1FBF3F12368491C1E6A26F0DD
:1005D0003F06314319626168914210D84900401EBC
:1005E000B0FBF1F2521CC2F30B02042A01D2042028
:1005F00022E0B0FBF1F0401CC0F30B001CE0A2684D
:10060000F2B301EBC10303EB0116431EB3FBF6F398
:100610005B1C43F480431B0549D092B301EBC1023C
:1006200002EB0111401EB0FBF1F0401CC0F30B00C7
:1006300040F4804040F400402168CA694CF6FF73E2
:100640009A431043C861D4E9071001432068026847
:1006500022F0C00211430160D4E903010143206884
:10066000826848F2FF339A4311438160D4E905015F
:1006700008432168CA6822F0FF021043C86001E005
:100680000EE016E02068016841F001010160256478
:10069000202084F83D00256384F83E50002070BD82
:1006A00001EB4106431EB3FBF6F35B1CB3E70120ED
:1006B000C2E701EB4101401EB0FBF1F0401CC0F36A
:1006C0000B00B7E7A086010080841E0000093D00F2
:1006D00040420F0010B586B00021009101910291B7
:1006E000039100680F4988421AD10F4CA06940F06D
:1006F0000800A061A069694600F008000490C020CD
:10070000009012200190032003900848FFF716FE86
:10071000E06940F40010E061E06900F4001004902A
:1007200006B010BD0054004000100240000C014013
:1007300002488168027811448160704710000020EF
:10074000074810B5016841F010010160032000F076
:10075000A1F80F2000F006F800F050F8002010BDBE
:100760000020024030B505461F4887B0C16941F0FE
:100770000401C161C06906A900F00400009001A84D
:1007800000F030F90498B0B100F04CF9400017497E
:10079000174AB0FBF1F11748491E0260416040F270
:1007A000E7320021C0E903218160816100F012FB82
:1007B000040003D015E000F035F9E8E70D4800F03B
:1007C00037FB04000DD11E2000F036F8102D07D2A3
:1007D000002229461E2000F03DF80748056000E091
:1007E000012407B0204630BD0010024040420F00F7
:1007F0000008004034010020140000200C4808B517
:10080000816941F001018161816901F0010100917B
:10081000C16941F08051C161C06900F08050009011
:100820000448416821F0E06141F00071416008BD79
:100830000010024000000140002809DB00F01F0208
:10084000012191404009800000F1E020C0F8001132
:1008500070470000F0B40E4B1B680C46C3F3022334
:10086000C3F10705042D00D90425191D072901D25C
:10087000002300E0DB1E012606FA05F1491E214097
:1008800099409E40761E16403143F0BC00F0EEBF0A
:100890000CED00E0064900F0070208684FF6FF0380
:1008A000184040EA0220034A1043086070470000E5
:1008B0000CED00E00000FA052DE9F0470F460500B9
:1008C00061D0434E306800F00700B84209D230686A
:1008D00020F0070038433060306800F00700B8426D
:1008E00051D128683B4C810712D5400703D5606879
:1008F00040F4E06060602878000703D5606840F449
:10090000605060606068A96820F0F0000843606093
:100910002878C00728D06868012810D021680228EC
:1009200010D0890700292EDA616821F00301014304
:100930006160FFF705FE804641F288390DE02168CD
:100940008903EFE78901EDE7FFF7FAFDA0EB080166
:10095000494502D90320BDE8F0876068696800F066
:100960000C00B0EB810FEFD1306800F00700B84207
:100970000BD9306820F0070038433060306800F051
:100980000700B84201D00120E5E72878400705D5E7
:100990006068E96820F4E060084360602878000738
:1009A00006D56068296920F4605040EAC1006060A3
:1009B00000F058F86168084AC1F30311515CC8405F
:1009C0000649086006480068FFF7CCFE0020C2E731
:1009D0000020024000100240262C00081C000020CD
:1009E000140000200F2202600C4A536803F0030336
:1009F0004360536803F0F0038360536803F4E063DB
:100A0000C36052684FF4E06303EAD2020261044813
:100A1000006800F007000860704700000010024006
:100A2000002002400448054900684968044AC1F3AF
:100A30000221515CC84070471C0000200010024099
:100A4000362C00080448054900684968044AC1F387
:100A5000C221515CC84070471C00002000100240B9
:100A6000362C00080E4A51680E4801F00C03042B86
:100A700011D0082B0FD10C48C1F38343C903C05CCC
:100A80000AD55168084AC1F34041921E515C054A9B
:100A90005043B0FBF1F070470449484370470000F1
:100AA0000010024000127A00162C000800093D00D8
:100AB0002DE9F84F040070D02078C04DC00749D010
:100AC0006868C0F38100012807D06868C0F381001E
:100AD000022809D16868C00306D52868800339D583
:100AE00060680028E7D035E06068B0F5803F0BD043
:100AF00010B1B0F5A02F11D0286820F48030286004
:100B0000286820F4802002E0286840F480302860C3
:100B1000606890B1FFF714FD06460AE0286840F4CB
:100B200080202860F0E700BFFFF70AFD801B6428E3
:100B300073D828688003F7D50CE0FFF701FD06465F
:100B400005E000BFFFF7FCFC801B6428F0D8286894
:100B50008003F7D420789A4E80074FF001094FF0B8
:100B6000000839D5686810F00C0F07D06868C0F32A
:100B70008100022809D16868C00306D4286880076C
:100B800014D52069012808D110E02069B0B1C6F859
:100B90000090FFF7D5FC074605E00AE1FFF7D0FC1F
:100BA000C01B0228C4D828688007F7D52868616967
:100BB00020F0F80040EAC10028600DE0C6F800808F
:100BC000FFF7BEFC074604E0FFF7BAFCC01B022893
:100BD00023D828688007F7D4207800072CD57948D7
:100BE000A169D9B1C0F80090FFF7AAFC074604E05C
:100BF000FFF7A6FCC01B02280FD8686A8007F7D54C
:100C000071484FF4FA510068B0FBF1F0009000BF5A
:100C10000098411E0091FAD20EE080E0C0F80080FA
:100C2000FFF78EFC074604E0FFF78AFCC01B022892
:100C300075D8686A8007F7D42078400760D5E869DE
:100C40000027C00008D4E86940F08050E861E869F6
:100C5000012700F0805000905C480168C90513D45A
:100C60000168834641F480710160FFF769FC8246A8
:100C700006E000BFFFF764FCA0EB0A0064284ED832
:100C8000DBF80000C005F5D5E06801280AD008B1FE
:100C9000052813D0286A20F001002862286A20F075
:100CA000040002E0286A40F001002862E06841F296
:100CB000883B98B1FFF744FC82460BE0286A40F07D
:100CC00004002862EEE700BFFFF73AFCA0EB0A0140
:100CD00059455AD8286A8007F6D50CE0FFF730FC52
:100CE000824605E0FFF72CFCA0EB0A0159454CD8E1
:100CF000286A8007F6D41FB1E86920F08050E861C7
:100D0000E06988B36968C1F38101022944D00228EF
:100D1000C6F8608004D0FFF713FC044638E034E0E6
:100D2000FFF70EFC074604E0FFF70AFCC01B022891
:100D30002BD828688001F7D4206AB0F5803F05D110
:100D40006868A16820F4003008436860D4E90801AD
:100D50000843696821F4741108436860C6F860901C
:100D6000FFF7EEFB044606E025E000BFFFF7E8FBD7
:100D7000001B022809D828688001F7D51BE000BFB6
:100D8000FFF7DEFB001B022802D90320BDE8F88F25
:100D900028688001F4D40EE00128F7D06868226A40
:100DA00000F48031914204D1616A00F470108842ED
:100DB00001D00120EAE70020E8E70000001002402F
:100DC00000004242800442421C00002000700040AB
:100DD0007047704710B5040003D094F83D0010B17F
:100DE00007E0012010BD002084F83C00204600F000
:100DF0001EF8022084F83D00211D206800F0AEFBA3
:100E0000012084F8460084F83E0084F83F0084F80E
:100E1000400084F8410084F8420084F8430084F8DC
:100E2000440084F8450084F83D00002010BD704760
:100E300090F83D10012901D001207047022180F86F
:100E40003D100168CA6842F00102CA6000680B499F
:100E5000884208D0B0F1804F05D00949884202D0BD
:100E60000849884204D1816801F00701062903D0AE
:100E7000016841F00101016000207047002C014031
:100E8000000400400008004070472DE9F04104468E
:100E90000068C66805694FF00007A90713D5B107B8
:100EA00011D5F91E01610120207720688069800733
:100EB000204602D0FFF7E8FF04E000F07EF820466D
:100EC00000F07CF82777680716D5700714D52168DD
:100ED0006FF004000861022020772068806910F418
:100EE000407F204602D0FFF7CFFF04E000F065F816
:100EF000204600F063F82777280715D5300713D56B
:100F000021686FF008000861042020772068C0691C
:100F10008007204602D0FFF7B7FF04E000F04DF84D
:100F2000204600F04BF82777E80616D5F00614D5D2
:100F300021686FF010000861082020772068C069E0
:100F400010F4407F204602D0FFF79EFF04E000F03F
:100F500034F8204600F032F82777E80708D0F00789
:100F600006D021686FF001000861204600F028F8E3
:100F7000280608D5300606D521686FF08000086184
:100F80002046FFF725FF680608D5700606D52168BC
:100F90006FF040000861204600F01CF8A8060AD552
:100FA000B00608D521686FF0200008612046BDE832
:100FB000F041FFF70EBFBDE8F081704770470000B9
:100FC00000680349884201D1FFF7B2BB70470000B7
:100FD000000800407047704770470000F8B501688E
:100FE00004460868CA684B6910F00F0F4FF00005FF
:100FF00059D003F0010602F49077374365D0C1075A
:1010000005D0D10503D5616C41F001016164410750
:1010100005D5D90703D0616C41F0020161648107F5
:1010200005D5D90703D0616C41F004016164010763
:1010300007D502F02001314303D0616C41F0080173
:101040006164616C00293AD0800604D5900602D50F
:10105000204600F0EEFA20684069616CC0F3801011
:10106000090700D460B3204600F0BCFA206840694C
:10107000400621D52068143050E8001F21F04001BF
:1010800040E80012002AF5D1E06BA8B16D49416338
:10109000E06BFFF707F9002811D0E06B416B01B05E
:1010A000BDE8F040084783060FD593060DD52046CE
:1010B000BDE8F84000F0BDBA2046FFF78DFFF8BD4F
:1010C0002046FFF789FF6564F8BD266B2023012EBB
:1010D0007CD1C6067AD5D60678D5086848680090CF
:1010E00048694FF00206400640D5E16B0868406849
:1010F0000004000CE8D0A28D8242E5D9E085886921
:1011000020282DD020680C3050E8001F21F4807179
:1011100040E80012002AF5D12068143050E8001F82
:1011200021F0010140E80012002AF5D120681430B6
:1011300050E8001F21F0400140E80012002AF5D1DC
:1011400084F84230256320680C3050E8001F21F0FD
:10115000100140E80012002AF5D1E06BFFF77EF89D
:101160006663A08DE18D401A81B22AE0A08DE18DE9
:10117000401A81B2E08D0028A6D00029A4D02268B0
:101180000C3252E8000F20F4907042E80007002F64
:10119000F5D12068143050E8002F22F0010240E819
:1011A0000027002FF5D184F84230256320680C30E9
:1011B00050E8002F22F0100240E80023002BF5D168
:1011C00066632046FFF707FFF8BDFFE705062BD54E
:1011D000150629D594F841002128F5D1A068B0F56D
:1011E000805F01D12069B0B1206A411C2162216871
:1011F00000784860E08C401E0004000CE084E3D1DD
:101200002068C16821F08001C1602068C16841F098
:101210004001C160D8E7206A0088C0F30800486038
:10122000206A801C2062E5E74006CDD55006CBD56C
:10123000CA68204622F04002CA6084F8413000F0BB
:10124000C6F8C1E7D515000870B5040004D094F8BD
:101250004100002510B106E0012070BD84F8405027
:10126000204600F023F8242084F841002068C1685B
:1012700021F40051C160204600F03CFA2068016969
:1012800021F4904101612068416921F02A01416106
:101290002068C16841F40051C1606564202084F871
:1012A000410084F842006563002070BD30B585B010
:1012B0000024009401940294039400681849884221
:1012C0002BD11848C16941F40031C161C16901F4F1
:1012D00000310491816941F0040181618069124DFE
:1012E00000F00400049004200090022001900320EC
:1012F000039069462846FFF721F80820CDE900044D
:10130000694628460294FFF719F800221146262064
:10131000FFF7A0FA2620FFF78FFA05B030BD0000D6
:1013200000440040001002400008014070472DE9D1
:10133000F843044690F84100984616460D4620288A
:1013400002D00220BDE8F88385B17EB10020606440
:10135000212084F84100FFF7F3F8A6848146E68453
:10136000A0682027B0F5805F02D003E00120E9E704
:10137000206910B12E4600250EE000260CE08021E9
:10138000204600F013FAA8B9C6B116F8010B21687F
:101390004860E08C401EE084E08C4B464FF0000239
:1013A000CDF800800028EAD14FF04001204600F03F
:1013B000FDF940B184F841700320C3E735F8020B12
:1013C000C0F30800E3E784F841700020BAE77047F3
:1013D000FEE7000070B586B0002420480094019418
:1013E00002940394816941F020018161816901F0D7
:1013F00020010491816941F004018161816901F05A
:1014000004010491816941F0080181618069144EF1
:1014100000F0080004900022C0213046FFF78BF84E
:10142000C0200125CDE900050220CDE90240694632
:101430003046FEF783FF2803CDE90004094E6946D4
:1014400030460294FEF77AFF68038DE83100694662
:101450003046FEF773FF06B070BD0000001002407A
:1014600000080140000C01400D4810B50B49016017
:101470000C49416000214FF480428160C0E90312B1
:1014800041618161C1610162FFF760F8002803D00A
:10149000BDE81040FEF7CABE10BD00000054004079
:1014A00098000020801A06000C4810B50A49016017
:1014B0004FF416514160002181600C22C160C0E9E7
:1014C00004128161C161FFF7BFFE002803D0BDE8AF
:1014D0001040FEF7ABBE10BD00440040EC00002001
:1014E000FEE7FEE7FEF72EBEFEF70ABE01F092B859
:1014F00030B58FB028216846FEF779FE14210AA87E
:10150000FEF775FE01210804CDE9001000240294C5
:1015100002250491CDE907504FF4E0100990684688
:10152000FFF7C6FA08B172B6FEE70F20CDE90A054B
:101530004FF48060CDE90C4002210AA80E94FFF719
:10154000BBF9002801D072B6FEE70FB030BD70477E
:101550000148FFF79ABC000034010020F0B5026892
:10156000194B1A4C1A4D4FF08047984205D0B8429B
:1015700003D0A04201D0A84203D122F070064A68ED
:101580003243984205D0B84203D0A04201D0A842CD
:1015900003D122F44074CA6822434C6922F08002CD
:1015A000224302608A68C2620A688262984201D15C
:1015B00009690163012141610169C90703D001691A
:1015C00021F001010161F0BD002C01400004004048
:1015D0000008004010B5406A0021C185C184FFF7B2
:1015E000FBFC10BD01680C3151E8002F22F4907211
:1015F00041E80023002BF5D10168143151E8002F98
:1016000022F0010241E80023002BF5D1016B0129F2
:1016100009D101680C3151E8002F22F0100241E895
:101620000023002BF5D1202180F842100021016316
:10163000704708B590F84210222901D0022008BD59
:1016400082684FF480539A4201D1016921B1816AC5
:101650009A421BD04AB10AE00268816A5268C2F31A
:1016600008020A80816A891C08E0026972B1026876
:10167000526802F07F020A70816A491C8162C18D42
:10168000491E0904090CC18503D01BE00268526899
:10169000F1E70168CA6822F02002CA600168CA68DE
:1016A00022F48072CA6001684A6922F001024A612C
:1016B000202180F8421000214163026B012A03D0EF
:1016C000FFF734FE002008BD016301680C3151E8CA
:1016D000002F22F0100241E80023002BF5D1016811
:1016E0000A68D20602D50A6849680091818DFFF721
:1016F00072FCE7E770B5044600680169E26821F40E
:101700004051114301612169A068084361690843A0
:101710002168CA6841F20C639A430243CA60206898
:101720004169A26921F44071114341611E49206859
:10173000884202D1FFF786F901E0FFF773F900EB69
:10174000C00101EB0012606864218000B2FBF0F37D
:10175000B3FBF1F36FF018067343B2FBF0F5B2FB85
:10176000F0F605EB8305322303EB0515B5FBF1F528
:10177000B6FBF1F605F0F00505EB0615B2FBF0F649
:10178000B2FBF0F0B0FBF1F06FF01802504306EB43
:10179000800003EB0010B0FBF1F0216800F00F00B7
:1017A0002844886070BD0000003801402DE9F843EE
:1017B000984617460D460446089E24E0701C22D029
:1017C000FEF7BEFEA0EB0800B0421AD8CEB12068EA
:1017D000C168490717D5802D15D0402D13D0016859
:1017E000C94309070FD401680025406800902046CE
:1017F000FFF7F8FE0820606484F840500120BDE83F
:10180000F8830320FBE72068006835EA000004D075
:101810000020B842D2D00020F1E70120F9E7000013
:101820000148FFF7DBBB0000EC000020FEE70000F2
:10183000064C4FF4FA7540212046FEF774FE284608
:1018400000F0D4FD02A000F009F8F4E70008014020
:10185000576C65645F7461736B0D0A00014A02493D
:1018600000F023B8CD180008940000200907090EE5
:10187000002804DB00F1E02080F80014704700F03D
:101880000F0000F1E02080F8141D704702E008C846
:10189000121F08C1002AFAD170477047002001E0EA
:1018A00001C1121F002AFBD170472DE9F0411646F5
:1018B0000F460446002503E03946B047641C6D1C02
:1018C00020780028F8D12846BDE8F08113B54FF6FE
:1018D000FF73012269460248FFF729FD00981CBDED
:1018E000EC00002070B5124D00244FF480563146B4
:1018F0002846FEF713FE38B90A2000F077FD31467E
:101900002846FEF70BFE00B15CB10A48406800F0C3
:1019100085FD09A0FFF7A2FFBDE87040002000F0A0
:101920007DBD09A0FFF79AFF642000F05FFDDEE7B0
:10193000000C0140000000206B6579315F74617319
:101940006B20656E640D0A006B6579315F7461739D
:101950006B0D0A001CB5FEF7F3FEFFF7C9FDFFF79C
:1019600039FDFFF7A1FDFFF77FFD0A490220CDE910
:1019700000010023402208A10A4800F073FF01285B
:1019800005D009A0FFF76AFF00F0D6FDFEE70DA025
:10199000F8E700000000002073746172745F7461E6
:1019A000736B000001210008637265617420737419
:1019B0006172745F7461736B2066616C73650D0A8C
:1019C0000000000063726561742073746172745F5B
:1019D0007461736B20737573736365730D0A000014
:1019E0002DE9F0411E4C0F460546E6682068001DB3
:1019F00000F030FC38B9206890F82C1001208840A5
:101A0000216981432161681C15D1A7B1154922685C
:101A10004868906023688268DA6022688368121DD3
:101A20005A602268121D8260206841610868401C6B
:101A30000860BDE8F08120683544B5424560216802
:101A400005D2E06BBDE8F041091D00F024BCA06B9D
:101A5000091D00F020FCA06A8542EAD2A562E8E7F1
:101A6000200000209C0400202DE9F041054600F0F4
:101A700037FC354CA068401CA0602068334F10B183
:101A8000606930B32BE02560A068012827D10026CB
:101A900006EB860007EB800000F0EFFB761C202EA3
:101AA000F6D32B4800F0E9FB2948143000F0E5FBA1
:101AB0002748283000F0E1FB25483C3000F0DDFBF2
:101AC0002348503000F0D9FB2148A0631430E06374
:101AD00005E02068E96AC06A884200D82560606A2B
:101AE0000121401C6062E86A226981401143216142
:101AF00000EB800007EB80004068A8608168E96027
:101B00008268291D51608160E86A00EB800007EB64
:101B10008001696157F82010491C47F8201000F037
:101B2000EDFB606900280CD02068E96AC06A884231
:101B300007D208494FF080500860BFF34F8FBFF3C2
:101B40006F8FBDE8F081000020000020CC01002054
:101B50004C04002004ED00E010B500F0C1FB0E4C79
:101B60002068A0B90D4800F088FB0C48143000F044
:101B700084FB0A48E0601430206100220C210A2016
:101B800000F05EFD206010B105A100F0EFFBBDE8A4
:101B9000104000F0B3BB000060000020B004002043
:101BA000546D72510000000030B4026C0B46002AE4
:101BB0000BD0C1681144C1608468A14201D301689F
:101BC000C16030BC1846FEF7F9BA30BC704710B59A
:101BD0000446006B00F09CFB2046BDE8104000F07E
:101BE00097BB00000E484FF40051420706D0C01DBD
:101BF0000B4920F00700411AC1F50051094A0023A2
:101C00000144C2E900030839143A21F007011160C8
:101C10004B600B600B1AC0E9001393605360704770
:101C2000D80400208C000020144E154CA6F52F7708
:101C30004FF08058DFF84C9012E000BF00F050FBEE
:101C4000F068C568281D00F005FBA068401EA06074
:101C50006068401E606000F051FB2846FFF7B7FF48
:101C600060680028EAD138680128F9D9C9F80080ED
:101C7000BFF34F8FBFF36F8FF2E70000880400209F
:101C80002000002004ED00E02DE9F0479946DDE951
:101C9000096480466FF00303206B03EB8202089D0A
:101CA000104420F0070761B1002023180A5C83F874
:101CB00034200A5C12B1401C1028F6D3002084F8AE
:101CC0004300202D00D31F25E562201D656400F030
:101CD000DFFA04F1180000F0DBFA2461C5F12000FE
:101CE0006462A0614A464146384600F0F7F9206038
:101CF000002E00D03460BDE8F087000030B51149F7
:101D000000E011460A688242FBD34B685C188442AB
:101D100003D1406818444860084643681C18944240
:101D200009D1084C143C2468A24209D052681A44D4
:101D300042600A6812680260814200D0086030BDCB
:101D40000460F9E78C00002070B5002441600B4D61
:101D50000061914206D8D11A8269914206D2011DD2
:101D6000286907E09A4203D2994201D3012403E093
:101D7000011DE86800F08FFA204670BD6000002069
:101D800010B5044600F0ACFAA06B28B15FF0000477
:101D900000F0B4FA204610BD0124F9E770B50646FC
:101DA0000D480D46C068C068C468201D00F052FA96
:101DB00094F82400410705D52A463146204600F014
:101DC000ABF803E000F0FE0084F824002046216A0E
:101DD000BDE8704008470000600000207FB5324E2B
:101DE0005AE00098002857DB029C606910B1201D62
:101DF00000F030FA03A800F0B1F8054600980A2870
:101E00004AD2DFE800F0490505282E3D0505282EB9
:101E100094F824002A4640F0010084F82400019937
:101E2000A069019B01442046FFF78EFF38B394F868
:101E30002400410707D50198A1692A46014420469C
:101E400000F06AF803E000F0FE0084F82400216A44
:101E50002046884720E014F8240F00F0FE00207090
:101E60001AE094F824002B4640F0010084F8240086
:101E70000198A06141191A462046FFF765FF0BE063
:101E800094F82400810703D4204600F041FA03E0CF
:101E900000F0FE0084F8240000226946306800F05B
:101EA0003DFC00289DD17FBD60000020F8B50D46A7
:101EB000064600F06DFB684600F050F804460098B6
:101EC00010B100F0FBFDF8BD1148ADB10169096822
:101ED000D9B10025311B2A46006800F065FA00F0F0
:101EE000EDFD0028EFD10B494FF080500860BFF3A3
:101EF0004F8FBFF36F8FF8BDA642EBD800F0DEFD29
:101F000021463046FFF74AFFF8BD0125E2E7000011
:101F10006000002004ED00E070B516460C46054652
:101F200004E0A869296A044428468847A86923462A
:101F3000011932462846FFF707FF0028F1D170BD8E
:101F40000548816B096821B1816BC96809688162A4
:101F500070474FF0FF31FAE7200000202DE9F041F3
:101F6000064600F0ADFC0E4C0546A068854214D232
:101F70004FF0FF3704E0C06839460068FFF70EFFF6
:101F8000E06801680029F6D12169C4E90310012045
:101F900030602846A560BDE8F0810020F8E7000029
:101FA00060000020102080F31188BFF34F8FBFF333
:101FB0006F8FFEE7074CE068016841B1C0680021FF
:101FC000D0F80000FFF772FFFFF708FFF3E70121E9
:101FD0000020F7E7600000202DE9F041044600F002
:101FE0007FF994F9455004F1240609E0606A48B18C
:101FF000304600F0FDFC08B100F068FA6D1E6DB2CD
:10200000002DF3DC4FF0FF3684F8456000F076F9E0
:1020100000F066F994F9445004F1100709E02069D2
:1020200048B1384600F0E4FC08B100F04FFA6D1EEC
:102030006DB2002DF3DC84F84460BDE8F04100F09F
:102040005DB9000070B50446002600F0A1FA224DEB
:10205000286808B9FFF7C6FDCCB304F00700C0F14B
:102060001000C1438C4232D8211800292FDD686846
:1020700081422CD8184814300246146801E02046EA
:10208000144662688A4202D22268002AF7D12A687E
:1020900094421CD006682268026060680836421AC2
:1020A000102A04D9601842606160FFF727FE61685A
:1020B0006868401A6860AA68904200D2A86041F03F
:1020C0000040606000202060E868401CE86000F08C
:1020D000F5FC304670BD00007800002010B5031FED
:1020E0004FF080741C601B1F21F001011960191F43
:1020F000024B0B60143940380A6010BDA51F000860
:102100001CB51E490320CDE90001002320221CA19B
:102110001E4800F0A7FB01282AD01DA0FFF79EFB58
:1021200016490420091DCDE90001002320221EA12B
:10213000204800F097FB01281CD01FA0FFF78EFB62
:102140000E4905200831CDE900010023202220A1FD
:10215000224800F087FB01280ED021A0FFF77EFB6C
:1021600025A0FFF77BFBBDE81C40002000F056B91E
:1021700023A0D3E729A0E1E72FA0EFE70400002088
:10218000576C65645F7461736B0000003118000860
:10219000637265617420576C65645F7461736B2052
:1021A00066616C73650D0A00476C65645F746173EA
:1021B0006B00000031020008637265617420476C97
:1021C00065645F7461736B2066616C73650D0A00F2
:1021D0006B6579315F7461736B000000E51800086E
:1021E0006372656174206B6579315F7461736B2014
:1021F00066616C73650D0A00686572650D0A000002
:10220000637265617420576C65645F7461736B20E1
:10221000737573736365730D0A0000006372656103
:102220007420476C65645F7461736B20737573739E
:102230006365730D0A0000006372656174206B654D
:1022400079315F7461736B20737573736365730D9C
:102250000A000000D0E9013201699A60D0E9012347
:102260005A604A68824201D182684A600022026153
:102270000868401E08600868704700F108014FF0C8
:10228000FF32C0E90112C1600161002101607047A5
:1022900000210161704730B50B685A1C02D000F173
:1022A000080202E0026904E02246546825689D4263
:1022B000FAD953684B6099608A605160086101687F
:1022C000491C016030BD42684A6093688B60936826
:1022D0005960916008610168491C01607047000005
:1022E000102080F31188BFF34F8FBFF36F8F024828
:1022F0000168491C016070477400002003490868A8
:10230000401E086001D180F31188704774000020DE
:1023100070B500281BD0A0F108046068002816DA08
:102320002168002913D120F00040606000F030F9EE
:10233000074D60686968084468602046FFF7DEFC66
:102340002869401C2861BDE8704000F0B7BB70BD33
:10235000780000204FF0E0200021016181610249F6
:1023600041610721016170473F19010070B50022EA
:10237000002915D00B4C002304EBC3056E68864280
:1023800002D104EBC30207E01AB954F8336006B96E
:102390002A465B1C0A2BEFD3002A01D0C2E90010A9
:1023A00070BD00007C01002070B515460E46044645
:1023B000FFF796FF94F944100020491C01D184F8DE
:1023C000440094F94510491C01D184F84500FFF7F9
:1023D00095FFA06B28B92A46314604F1240000F08D
:1023E0008BF82046BDE87040FFF7F6BD10B502003F
:1023F00009D000F0CDF800211046FFF7F1FA00F007
:102400005DFB002807D104494FF080500860BFF3FE
:102410004F8FBFF36F8F10BD04ED00E070B5054620
:10242000FFF75EFF214C05B92568281DFFF712FF55
:1024300058B9E86A1E4A00EB800152F8211021B910
:1024400001218140206988432061A86A18B105F103
:102450001800FFF7FFFE606A401C6062206885423A
:1024600007D1291D1348FFF72EFF6068401C6060EC
:1024700004E0A068401EA060FFF762FDFFF73EFF8A
:102480002068854202D02846FFF7A1FB606900283A
:102490000AD02068854207D107494FF08050086074
:1024A000BFF34F8FBFF36F8F70BD0000200000207F
:1024B000CC0100208804002004ED00E002490A6AF3
:1024C0000260C96841607047200000200149012076
:1024D000C86170472000002010B50C460549096806
:1024E0001831FFF7D8FE2046BDE810400121FFF764
:1024F00077BA000020000020F0B40C460D49436874
:102500000D68EB619D680E6835620D689E68183530
:1025100075600D6818359D60096888620168491CFE
:1025200001600AB14FF0FF342046F0BC1146FFF7BE
:1025300057BA0000200000207CB511480025CDE9E5
:1025400000502B4640220FA1104800F08BF90C4C94
:102550002C3C012812D100F03FFB01280ED11020A5
:1025600080F31188BFF34F8FBFF36F8F4FF0FF30B1
:10257000A06201206061E56000F034F8206B7CBD52
:102580004C00002049444C4500000000291C000874
:102590000248416B491C4163704700002000002045
:1025A0000E48416B11B10121C16170470021C16129
:1025B00001690B4AB1FA81F1C1F11F0101EB8101FF
:1025C00002EB810101F108034A6852684A609A42AD
:1025D00001D152684A60D168016070472000002034
:1025E000CC010020094810B5016841F47001016078
:1025F000016841F070410160FFF7ACFE0449002022
:102600000860FDF78FFD002010BD000020ED00E008
:102610007400002010B5102080F31188BFF34F8F95
:10262000BFF36F8F00F052F918B104494FF080509A
:102630000860002080F3118810BD000004ED00E068
:1026400070B50E4605004FF0000418D0601EB0FBB8
:10265000F5F0B04213D305FB06F010F1490F0ED888
:102660004830FFF7EFFC040009D004F14801204690
:102670003EB10160C0E90F56012100F005F8204687
:1026800070BD0060F6E700002DE9F0410F46040040
:102690004FF001063CD0E06BC8B3B51EB5FBF0F1BE
:1026A000206C814234D3FFF71BFED4E90F20216850
:1026B00002FB0011A1600021A163216861600A464C
:1026C000D4E90F01401E00FB01212046E16000F823
:1026D000445F457004F110004FB1FFF7CEFD04F1E7
:1026E0002400FFF7CAFD00BFFFF708FE11E02169D3
:1026F0000029F9D000F07CF90028F5D006494FF008
:1027000080500860BFF34F8FBFF36F8FECE7FFE798
:1027100000263046BDE8F08104ED00E02DE9F747E2
:102720000026DFF8E48083B08A460446B1464FF0C5
:10273000805700BFFFF7D4FDA56BC5B151462046B9
:10274000FFF732FA6D1EA563206950B104F1100045
:1027500000F04EF928B1C8F80070BFF34F8FBFF3F7
:102760006F8FFFF7CBFD012006B0BDE8F08705981D
:1027700008B11EB106E0FFF7C1FD27E06846FFF78C
:102780009DFE0126FFF7BAFDFFF702FFFFF7A8FD48
:1027900094F94400401C01D184F8449094F9450018
:1027A000401C01D184F84590FFF7A8FD05A96846B3
:1027B00000F02CF8002820460AD0FFF70DFC00F0AE
:1027C0007DF92046FFF7DCFA0028B3D00020CBE7E4
:1027D000FFF7D6FA90B104F124000599FFF77CFECB
:1027E0002046FFF7F9FB00F069F90028A2D1C8F8EC
:1027F0000070BFF34F8FBFF36F8F9BE72046FFF74B
:10280000EBFB00F05BF995E704ED00E02DE9F0410A
:102810000C460546FFF764FD114EF2686B682168AF
:10282000D01A4F1C0AD02F68D6F820C00026674562
:1028300006D0934204D8012526600BE0002509E06C
:10284000814205D9081A20602846FFF737FEF5E7D0
:1028500001252660FFF752FD2846BDE8F081000003
:10286000200000202DE9FF5F8346DDE90E879946B1
:1028700016468A469000FFF7E5FB05001DD0542060
:10288000FFF7E0FB040015D05421FDF7B0FC2563F1
:102890000021CDE90241CDE900874B463246514641
:1028A0005846FFF7F1F92046FFF7DEF8012004B0A3
:1028B000BDE8F09F2846FFF72BFD4FF0FF30F6E70D
:1028C0000148C06870470000200000202DE9F04159
:1028D000454C0026606B28B1A069401CA0613046C1
:1028E000BDE8F081E5686D1CE56008D1A06BE16B87
:1028F000A163E063206A401C2062FFF721FBA16A0C
:102900003A488D420FD34FF0000EA16B096839B1E0
:10291000A16BC968C9684A68954212D2A26202E0F6
:102920004FF0FF31A1622168C96A01EB810150F8C3
:102930002100012800D90126E0690028CFD0012616
:10294000CDE7D1E902724B69BA60D1E902277A601A
:102950005F680A1D974201D1CF685F60C1F814E03B
:102960001F687F1E1F60D1F828C0BCF1000F15D072
:10297000D1E907379F60D1E907377B60DCF8047045
:1029800001F118039F4202D10B6ACCF80430C1F860
:1029900028E0DCF800305B1ECCF80030CB6A012761
:1029A000D4F810C09F4047EA0C07276103EB83036C
:1029B00000EB83035B688B609F68CF609F687A60E1
:1029C0009A60CA6A02EB820200EB82034B6150F804
:1029D00022305B1C40F82230C96A2268D26A9142D8
:1029E00093D9012691E7000020000020CC010020AF
:1029F00070B5C068C068D0E90732816A9A60D0E9D2
:102A000007235A604B6800F11802934201D1036A10
:102A10004B60002383620C68641E0C6024494D6B7C
:102A200001249DB1234D6B68C3619E6806629E6858
:102A300072609A6085622A68521C2A60C06A0A68BD
:102A4000D26A904231D90120CC6170BDD0E90265D3
:102A50004269B560D0E9025675605668051DAE4200
:102A600001D1C6685660436113685B1E1360C26A79
:102A70000E6904FA02F333430B610F4B02EB82023F
:102A800003EB8202526882609668C6609668756041
:102A90009560C26A02EB820203EB8205456153F83E
:102AA00022506D1C43F82250C8E7002070BD000082
:102AB0002000002074040020CC0100202DE9F0410A
:102AC00000242746FFF70CFC3F4D686B401E6863EF
:102AD000686B002872D1A8683C4B00264FF00108B3
:102AE000F0BB6BE0D868C468D4E90721A06A9160A4
:102AF000D4E907125160426804F118018A4201D1F9
:102B0000216A4160A6620168491E0160D4E9022180
:102B100060699160D4E9021251604268211D8A42C5
:102B200001D1E268426066610268521E0260E26A98
:102B3000D5F810C008FA02F040EA0C00286102EB58
:102B40008200234A02EB80004068A060D0F808C0F1
:102B5000C4F80CC0D0F808C0CCF80410816000E0C4
:102B600011E0E06A00EB800002EB8001616152F845
:102B70002010491C42F82010E06A2968C96A88427E
:102B800001D3C5F81C8018680028ABD10CB1FFF741
:102B9000D7F9AC6944B100BFFFF798FE08B1C5F89A
:102BA0001C80641EF8D1AE61E86938B1094901277B
:102BB00038070860BFF34F8FBFF36F8FFFF79EFB9F
:102BC0003846BDE8F0810000200000207404002099
:102BD000CC01002004ED00E01CB50024FEF7BCFF92
:102BE0000848006858B107490320091DCDE90001D4
:102BF0000023402204A10648FFF734FE0446204685
:102C00001CBD000060000020546D722053766300EC
:102C1000B51F0008010202030405060708090A0B94
:102C20000C0D0E0F1010000000000000000001024B
:102C30000304060708090000000001020304000065
:102C4000602C000800000020980000008C1800088C
:102C5000F82C000898000020402800009C1800086C
:102C60000000000000000000000000000000000064
:102C700001000000100000000000000000127A00B7
:102C80000000000000000000000000000000000044
:102C90000000000000000000000000000000000034
:102CA0000000000000000000000000000000000024
:102CB0001F000000000000000000000000000000F5
:102CC0000000000000000000000000000000000004
:102CD00000000000AAAAAAAA00000000000000004C
:102CE00000000000000000000000000000000000E4
:082CF0000000000000000000DC
:04000005080000ED02
:00000001FF
